:020000021000EC
:10C000000080002011C40100BD6B020035DB01007F
:10C010000000000000000000000000000000000020
:10C02000000000000000000000000000BD6B0200E6
:10C030000000000000000000BD6B0200BD6B0200AC
:10C04000BD6B0200BD6B0200BD6B0200BD6B020048
:10C05000BD6B020000000000BD6B0200BD6B020062
:10C06000BD6B0200BD6B0200BD6B0200BD6B020028
:10C07000BD6B0200BD6B0200BD6B0200BD6B020018
:10C08000BD6B02000D5E0200BD6B0200BD6B0200C5
:10C090008D5D02002159020029930200BD6B020050
:10C0A000BD6B0200BD6B020000000000000000003C
:10C0B0000000000000000000000000000000000080
:10C0C00000000000FFFFFFFFFFFFFFFFFFFFFFFF7C
:10C0D000FFFFFFFFFFFFFFFFFFFFFFFFFFFFFFFF70
:10C0E000FFFFFFFFFFFFFFFFFFFFFFFFFFFFFFFF60
:10C0F000FFFFFFFFFFFFFFFFFFFFFFFFFFFFFFFF50
:10C10000FFFFFFFFFFFFFFFFFFFFFFFFFFFFFFFF3F
:10C40000FFFFFFFFFFFFFFFFFFFFFFFFFEFFFFFF3D
:10C4100080B500AF0EF06AF80B4A0C4B9A4207D079
:10C420000B4B0949094A081C111C1A1C17F042FD44
:10C43000084B094A101C00211A1C17F058FD0EF079
:10C440003DF800F049F8FEE7002800205CA4030056
:0CC4500058010000240A000058290020B8
:10C46000F8B5C046F8BC08BC9E467047F8B5C04653
:10C47000F8BC08BC9E46704710B5064C2378002BCC
:10C4800007D1054B002B02D0044800E000BF012378
:10C49000237010BD58290020000000005CA4030098
:10C4A00008B5084B002B03D00748084900E000BF3F
:10C4B00007480368002B00D108BD064B002BFBD0BA
:10C4C0009847F9E7000000005CA403005C29002005
:10C4D0005829002000000000164B002B00D1144BFF
:10C4E0009D46402292029A1A924600218B460F46A0
:10C4F0001348144A121A17F0FAFC0F4B002B00D005
:10C5000098470E4B002B00D09847002000210400D4
:10C510000D000D48002802D00C4817F0F2FB17F070
:10C5200075FC2000290004F0ABFA17F0F9FBC046B7
:10C530000000080000800020000000000000000053
:10C54000582900207C330020033D03000000000038
:10C5500088DF704782DF704781DF70477CDF70477C
:10C560007ADF704778DF704776DF704774DF704797
:10C5700073DF704772DF704700B583B00F4B1B68E5
:10C58000DB0708D40E480BF0BDFC01220B4B1A60F0
:10C590000C4817F0B6FB0C4B00930C4B019308486A
:10C5A00001210B4AF2230BF01FFC0022094B1A80D9
:10C5B0000232094B1A7003B000BDC0465C2D00204A
:10C5C000602D002035C60100385503003C5503009E
:10C5D0001B550300F42900207429002070B582B097
:10C5E000061C031C114A04C344685D680DE0206802
:10C5F0000C380F4B984207D083685A1E8260002B7C
:10C6000002DC01A90EF08AF90434A542EFD170686A
:10C61000002801D00DF0FEFF301C0AF033FB301C67
:10C620000DF0F8FF301C02B070BDC046B8820300A8
:10C630003032002030B583B0104B114A1A605C686C
:10C640009D680DE020680C380E4B984207D0836837
:10C650005A1E8260002B02DC01A90EF05FF904343F
:10C66000A542EFD1054B5868002801D00DF0D2FF4C
:10C6700002480AF007FB03B030BDC046602D002021
:10C68000B88203003032002010B5074B1B68002B26
:10C6900007D134200DF0C2FF041C0DF01DFD024B2C
:10C6A0001C60014B186810BD182D002063DF704717
:10C6B00097DF704792DF7047A9DF7047A2DF7047AE
:10C6C000A0DF704770B58CB0051C04AE002333802A
:10C6D00012226A44138053809380D3801381538144
:10C6E0009381D38107AC227C0123134323741A4B1B
:10C6F00019682C31201C102217F0DCFB237C01224E
:10C700001340202213432374281C311C221CFFF7E2
:10C7100023FF041E04D07C21FF31104A04F0C4F82A
:10C720000F4B1B68DB0708D40E480BF0EBFB012214
:10C730000B4B1A600C4817F0E4FA0C4B00930C4BAF
:10C74000019302950394074801210A4A7E23FF338F
:10C750000BF04AFB0CB070BD142D002054550300A3
:10C760005C2D0020602D002035C6010074550300AB
:10C77000785503005F55030008B5074B1B68DB07BE
:10C7800008D406480BF0BEFB0122034B1A60044894
:10C7900017F0B7FA014808BD5C2D0020602D00207D
:10C7A00035C60100014B98617047C04674290020CE
:10C7B000014BD8617047C04674290020014B1860B6
:10C7C0007047C046F8290020014B18627047C046E8
:10C7D00074290020F0B58DB00388103B9AB2092A65
:10C7E00000D9B3E0041C93005C4AD3589F46002153
:10C7F00024235B4AD154037D012B01D1FFF7BCFEFA
:10C80000584B1B68DB0708D457480BF07BFB012211
:10C81000544B1A60554817F074FA554B0093554B1A
:10C82000019351480121544A9D230BF0DDFA534BEB
:10C830001B68201C984701208DE04A4B1B68DB07D2
:10C8400008D449480BF05EFB0122464B1A6047486A
:10C8500017F057FAA379464A0092494A0192029387
:10C8600041480121444AA7230BF0BEFA3C4B9B6987
:10C87000201C984701206EE08379032B68D1384B48
:10C880000021242299541B6A9847002063E007ADD9
:10C890002A7C012313432B743A4B19682C31281C32
:10C8A000102217F007FB2B7C012213402022134398
:10C8B0002B74A088291C00220023FFF74BFE041EC6
:10C8C00003D0CE21304A03F0EFFF264B1B68DB0775
:10C8D00008D425480BF016FB0122224B1A6023488E
:10C8E00017F00FFA294B0093294B019302941E482D
:10C8F0000121214AD0230BF077FA00202BE0C779E1
:10C9000083791E091B071D0F164B1B68DB0708D414
:10C9100015480BF0F7FA0122124B1A60134817F072
:10C92000F0F91A4B00931B4B019302970396049561
:10C930000D480121104ADC230BF056FA084BDB6945
:10C94000002B07D0201C9847002004E0002002E0C4
:10C95000002000E000200DB0F0BDC046D854030018
:10C96000742900205C2D0020602D002035C60100B8
:10C9700014780300AC5503005F550300F82900202C
:10C98000C0550300142D00205455030074550300B6
:10C99000D85503001056030008B51321FFF7E4FD36
:10C9A000002803D08321024A03F07EFF08BDC04661
:10C9B0005455030030B589B02423E64AD35C002BDC
:10C9C00000D0A5E2041C01212433D15404AA137819
:10C9D000022083438B431370DF4B1B68002B50D125
:10C9E0004A300DF01BFE051C01230370437000212B
:10C9F00000228170C8206860783828816881A98108
:10CA000096218900E981B939FF3929826982103874
:10CA1000A882FA204001E882C820C00028830820AC
:10CA20006883A9832039E9837B39298405316984A6
:10CA3000CA48A884CA48E884FA2080002885688506
:10CA4000A98524316B5401310020685401316A54A6
:10CA50006B8633330121E95403210133E954013159
:10CA60000133E9540133EA5401330121E95401331C
:10CA7000EA54281C3A30BB49102217F01BFAB64B77
:10CA80001D60B54B1B68998B04AA1181002B50D1F6
:10CA90004C200DF0C3FD051C0123037043700021E1
:10CAA00000228170C8206860783828816881A98157
:10CAB00096218900E981B939FF39298269821038C4
:10CAC000A882FA204001E882C820C00028830820FC
:10CAD0006883A9832039E9837B39298405316984F6
:10CAE0009E48A8849E48E884FA20800028856885AE
:10CAF000A98524316B5401310020685401316A54F6
:10CB00006B8633330121E95403210133E9540131A8
:10CB10000133E9540133EA5401330121E95401336B
:10CB2000EA54281C3A308F49102217F0C3F98A4B77
:10CB30001D60894B1B68D98B04AA5181002B50D1F1
:10CB40004C200DF06BFD051C012303704370002188
:10CB500000228170C8206860783828816881A981A6
:10CB600096218900E981B939FF3929826982103813
:10CB7000A882FA204001E882C820C000288308204B
:10CB80006883A9832039E9837B3929840531698445
:10CB90007248A8847248E884FA2080002885688555
:10CBA000A98524316B5401310020685401316A5445
:10CBB0006B8633330121E95403210133E9540131F8
:10CBC0000133E9540133EA5401330121E9540133BB
:10CBD000EA54281C3A306349102217F06BF95E4B77
:10CBE0001D605D4B1B68198C04AA9181002B50D1EC
:10CBF0004C200DF013FD051C012303704370002130
:10CC000000228170C8206860783828816881A981F5
:10CC100096218900E981B939FF3929826982103862
:10CC2000A882FA204001E882C820C000288308209A
:10CC30006883A9832039E9837B3929840531698494
:10CC40004648A8844648E884FA20800028856885FC
:10CC5000A98524316B5401310020685401316A5494
:10CC60006B8633330121E95403210133E954013147
:10CC70000133E9540133EA5401330121E95401330A
:10CC8000EA54281C3A303749102217F013F9324B76
:10CC90001D60314B1B68198902AA1180002B50D1ED
:10CCA0004C200DF0BBFC051C0123037043700021D8
:10CCB00000228170C8206860783828816881A98145
:10CCC00096218900E981B939FF39298269821038B2
:10CCD000A882FA204001E882C820C00028830820EA
:10CCE0006883A9832039E9837B39298405316984E4
:10CCF0001A48A8841A48E884FA20800028856885A4
:10CD0000A98524316B5401310020685401316A54E3
:10CD10006B8633330121E95403210133E954013196
:10CD20000133E9540133EA5401330121E954013359
:10CD3000EA54281C3A300B49102217F0BBF8064B76
:10CD40001D60054B1B68598902AA5180002B5CD1DC
:10CD50000AE0C046742900201C2B0020B80B0000FC
:10CD600010270000005503004C200DF057FC051C57
:10CD7000012303704370002100228170C820686085
:10CD8000783828816881A98196218900E981B9399B
:10CD9000FF39298269821038A882FA204001E8828E
:10CDA000C820C000288308206883A9832039E9832C
:10CDB0007B392984053169845748A8845748E88419
:10CDC000FA20800028856885A98524316B540131BB
:10CDD0000020685401316A546B8633330121E954D1
:10CDE00003210133E95401310133E9540133EA5499
:10CDF00001330121E9540133EA54281C3A304849EF
:10CE0000102217F057F8474B1D60464B1B68998955
:10CE100002AA9180002B50D14C200DF0FFFB051C85
:10CE2000012303704370002100228170C8206860D4
:10CE3000783828816881A98196218900E981B939EA
:10CE4000FF39298269821038A882FA204001E882DD
:10CE5000C820C000288308206883A9832039E9837B
:10CE60007B392984053169842B48A8842B48E884C0
:10CE7000FA20800028856885A98524316B5401310A
:10CE80000020685401316A546B8633330121E95420
:10CE900003210133E95401310133E9540133EA54E8
:10CEA00001330121E9540133EA54281C3A301C496A
:10CEB000102216F0FFFF1B4B1D601A4B1B6802AAC5
:10CEC000DB89D380201C04A9FFF742FB002803D094
:10CED0007221154A03F0E8FC0022144B1A80144B0F
:10CEE0001B68DB0708D413480BF00CF80122104B29
:10CEF0001A60114816F005FF104B0093104B019378
:10CF00000C4801210F4A77230AF06EFF012000E050
:10CF1000002009B030BDC046B80B0000102700004B
:10CF2000005503001C2B002054550300842B0020C7
:10CF30005C2D0020602D002035C601004C560300FA
:10CF4000545603005F55030010B52A4B1B68002B95
:10CF50004CD14C200DF062FB041C01220270427087
:10CF600000238370C8214160783901814181838128
:10CF700096218900C181B939FF390182418240205F
:10CF8000A082FA204001E082C820C000208308204F
:10CF90006083A1832039E1837B3921840531618459
:10CFA0001548A0841548E084FA208000208560851B
:10CFB000A185243162540131635401316354628686
:10CFC0000431625403200131605401300131605456
:10CFD00001316354013162543832A354201C3A3079
:10CFE0000749293A16F066FF024B1C60014B18688E
:10CFF00010BDC0461C2B0020B80B000010270000FD
:10D000000055030010B584B001A803780F229343A4
:10D01000012213430F221340102213430370C1490E
:10D020000622FFF79BFA002803D04521BE4A03F0F1
:10D030003BFC8020FFF796FA002803D04921BA4A2A
:10D0400003F032FC002302930393B84B1B68002BC0
:10D0500050D14C200DF0E2FA041C01230370437000
:10D06000002100228170C8206060783820816081B2
:10D07000A18196218900E181B939FF39218261823C
:10D080001038A082FA204001E082C820C00020832E
:10D0900008206083A1832039E1837B392184053115
:10D0A0006184A348A084A348E084FA2080002085FE
:10D0B0006085A18524316354013100206054013121
:10D0C0006254638633330121E15403210133E15477
:10D0D00001310133E1540133E25401330121E154C0
:10D0E0000133E254201C3A309349102216F0E2FE3C
:10D0F0008E4B1C608D4B1B68198902AA1180002B76
:10D1000050D14C200DF08AFA041C012303704370A7
:10D11000002100228170C820606078382081608101
:10D12000A18196218900E181B939FF39218261828B
:10D130001038A082FA204001E082C820C00020837D
:10D1400008206083A1832039E1837B392184053164
:10D1500061847748A0847748E084FA2080002085A5
:10D160006085A18524316354013100206054013170
:10D170006254638633330121E15403210133E154C6
:10D1800001310133E1540133E25401330121E1540F
:10D190000133E254201C3A306749102216F08AFE0F
:10D1A000624B1C60614B1B68598902AA5180002B9D
:10D1B00050D14C200DF032FA041C0123037043704F
:10D1C000002100228170C820606078382081608151
:10D1D000A18196218900E181B939FF3921826182DB
:10D1E0001038A082FA204001E082C820C0002083CD
:10D1F00008206083A1832039E1837B3921840531B4
:10D2000061844B48A0844B48E084FA20800020854C
:10D210006085A185243163540131002060540131BF
:10D220006254638633330121E15403210133E15415
:10D2300001310133E1540133E25401330121E1545E
:10D240000133E254201C3A303B49102216F032FEE2
:10D25000364B1C60354B1B68998902AA9180002BC4
:10D2600050D14C200DF0DAF9041C012303704370F7
:10D27000002100228170C8206060783820816081A0
:10D28000A18196218900E181B939FF39218261822A
:10D290001038A082FA204001E082C820C00020831C
:10D2A00008206083A1832039E1837B392184053103
:10D2B00061841F48A0841F48E084FA2080002085F4
:10D2C0006085A1852431635401310020605401310F
:10D2D0006254638633330121E15403210133E15465
:10D2E00001310133E1540133E25401330121E154AE
:10D2F0000133E254201C3A300F49102216F0DAFDB7
:10D300000A4B1C60094B1B6802A8DB89C380FFF72E
:10D3100027F9002803D05321034A03F0C5FA04B0CB
:10D3200010BDC0465C560300545503001C2B002062
:10D33000B80B0000102700000055030070B582B044
:10D34000061C046845680DE020680C380A4B9842BA
:10D3500007D083685A1E8260002B02DC01A90DF001
:10D36000DDFA0434A542EFD13068002801D00DF079
:10D3700051F9301C02B070BD3032002070B582B05F
:10D38000061C031C0F4A04C344685D680DE0206856
:10D390000C380D4B984207D083685A1E8260002BD0
:10D3A00002DC01A90DF0BAFA0434A542EFD170688D
:10D3B000002801D00DF02EF9301C09F063FC301C60
:10D3C00002B070BDB88203003032002030B583B0A7
:10D3D000041C934B1B88984200D11EE1002B20D0E7
:10D3E000FFF7C4F8051E03D0CF218E4A03F05CFA84
:10D3F000002D16D18C4B1B68DB0708D48B480AF034
:10D4000081FD0122884B1A60894816F07AFC894B0D
:10D410000093894B019385480121884AD1230AF062
:10D42000E3FC8023DB009C425AD1854B1B68002B18
:10D4300050D14C200DF0F2F8051C0123037043700D
:10D44000002100228170C8206860783828816881B6
:10D45000A98196218900E981B939FF392982698238
:10D460001038A882FA204001E882C820C000288332
:10D4700008206883A9832039E9837B392984053111
:10D4800069847048A8847048E884FA208000288560
:10D490006885A98524316B5401310020685401311D
:10D4A0006A546B8633330121E95403210133E95473
:10D4B00001310133E9540133EA5401330121E954C4
:10D4C0000133EA54281C3A306049102216F0F2FC6D
:10D4D0005B4B1D605A4B1B681A8A5D4B1A825DE0DC
:10D4E000F0231B019C4259D1554B1B68002B50D196
:10D4F0004C200DF093F8051C0123037043700021AC
:10D5000000228170C8206860783828816881A981EC
:10D5100096218900E981B939FF3929826982103859
:10D52000A882FA204001E882C820C0002883082091
:10D530006883A9832039E9837B392984053169848B
:10D540004048A8844048E884FA20800028856885FF
:10D55000A98524316B5401310020685401316A548B
:10D560006B8633330121E95403210133E95401313E
:10D570000133E9540133EA5401330121E954013301
:10D58000EA54281C3A303149102216F093FC2C4BF7
:10D590001D602B4B1B68DA8A2D4B1A8225232C4ADF
:10D5A000D35C002B13D0101C2623D15C2830002222
:10D5B0000023FEF7DFFF051E03D0DD21194A03F02B
:10D5C00073F9002D03D100212523214AD154002CC9
:10D5D00021D01F48FEF7CCFF051E03D0E621114ADB
:10D5E00003F062F9002D16D10F4B1B68DB0708D43E
:10D5F0000E480AF087FC01220B4B1A600C4816F00B
:10D6000080FB0C4B0093134B0193084801210B4AFC
:10D61000E8230AF0E9FB024B1C8003B030BDC04692
:10D62000F4290020105503005C2D0020602D0020FF
:10D6300035C6010038550300645603001B5503002E
:10D640001C2B0020B80B0000102700000055030021
:10D650007429002078560300F0B589B0041C0D1C15
:10D6600003AA117801230B405E2149420B4313703A
:10D670000D236B4400228831415C19702B21415CE1
:10D6800059700F236B441A705A702B680C3B1A6840
:10D69000002A03D0142A03D9012302E0012300E069
:10D6A0000023002B06D0FFF767F802210AF0A8FC40
:10D6B00000201BE0D2B203AE7271122068442968C8
:10D6C00016F0F8FBFEF7E0FF012700970021321C5F
:10D6D00014230CF019FC29687279201C05F006F857
:10D6E000FFF74AF800210AF08BFC381C09B0F0BDA6
:10D6F00038B5041C0D48A3880333026D1371A2884A
:10D70000051C54355C30216816F0D4FBA38808331F
:10D71000DBB2002000212A1CFEF72CFF002803D0DA
:10D72000A821034A03F0C0F838BDC0467429002080
:10D7300010550300F0B583B0071C0D1C002A1FD044
:10D740003A4B1B78002B1BD0394B1B68DB0708D4E6
:10D7500038480AF0D7FB0122354B1A60364816F0DC
:10D76000D0FA364B0093364B019332480121354AAB
:10D7700080230AF039FB00222C4B1A70012624E08A
:10D78000002A1FD1294B1B78022B1DD0284B1B6868
:10D79000DB0708D427480AF0B5FB0122244B1A60A6
:10D7A000254816F0AEFA254B0093274B01932148EC
:10D7B0000121244A86230AF017FB02221B4B1A7010
:10D7C000012602E0002600E00026184CAB880B334F
:10D7D0002622A354E06F8772AB880733C3700B30E7
:10D7E000AA88296816F066FBA9880B31C9B2201CEB
:10D7F000283000220023FEF7BDFE041E03D0932133
:10D80000124A03F051F8002E07D0114B1D8800205A
:10D81000FFF7DCFD281CFFF7D9FD002C03D0012108
:10D820002523024AD15403B0F0BDC046742900201C
:10D830005C2D0020602D002035C601003855030006
:10D840008C5603001B550300B4560300105503000B
:10D85000F42900200322014B1A707047742900201C
:10D8600038B5041CAC4B002225215A5401315A54BE
:10D87000243919705A601A72DA60FF31FF31198247
:10D880005A82A64B1B68002B50D14C200CF0C6FED0
:10D89000051C012303704370002100228170C82001
:10D8A0006860783828816881A98196218900E9819A
:10D8B000B939FF39298269821038A882FA204001DB
:10D8C000E882C820C000288308206883A983203903
:10D8D000E9837B392984053169849148A88491487A
:10D8E000E884FA20800028856885A98524316B5456
:10D8F00001310020685401316A546B8633330121B1
:10D90000E95403210133E95401310133E95401336E
:10D91000EA5401330121E9540133EA54281C3A3016
:10D920008149102216F0C6FA7C4B1D607B4B1968AA
:10D9300079482E23CB5C5A425A41037D0125AB43E3
:10D9400013430375002950D14C200CF067FE051CD1
:10D95000012303704370002100228170C820686099
:10D96000783828816881A98196218900E981B939AF
:10D97000FF39298269821038A882FA204001E882A2
:10D98000C820C000288308206883A9832039E98340
:10D990007B392984053169846148A8846148E88419
:10D9A000FA20800028856885A98524316B540131CF
:10D9B0000020685401316A546B8633330121E954E5
:10D9C00003210133E95401310133E9540133EA54AD
:10D9D00001330121E9540133EA54281C3A305249F9
:10D9E000102216F067FA4D4B1D604C4B19684A48DF
:10D9F0002F23CB5C5A4253415A00037D0225AB438F
:10DA000013430375002950D14C200CF007FE051C70
:10DA1000012303704370002100228170C8206860D8
:10DA2000783828816881A98196218900E981B939EE
:10DA3000FF39298269821038A882FA204001E882E1
:10DA4000C820C000288308206883A9832039E9837F
:10DA50007B392984053169843148A8843148E884B8
:10DA6000FA20800028856885A98524316B5401310E
:10DA70000020685401316A546B8633330121E95424
:10DA800003210133E95401310133E9540133EA54EC
:10DA900001330121E9540133EA54281C3A30224968
:10DAA000102216F007FA1D4B1D601C4B19681A4B0B
:10DAB00030228A5C51424A4191001A7D04208243FF
:10DAC0000A431A750021194A11801A1C2832DA6794
:10DAD0000238283158542739517005319170F93185
:10DAE0001171181C2D304D25057002254570F02050
:10DAF000D0711C861A1C54321A65ED3854241855FE
:10DB0000092353703D3393700733D37010715171F3
:10DB1000074BD38038BDC046742900201C2B002041
:10DB2000B80B00001027000000550300F429002066
:10DB30004D020000FEE7C04610B52F4B1B68002BBE
:10DB400050D14C200CF06AFD041C0123037043707B
:10DB5000002100228170C8206060783820816081B7
:10DB6000A18196218900E181B939FF392182618241
:10DB70001038A082FA204001E082C820C000208333
:10DB800008206083A1832039E1837B39218405311A
:10DB900061841A48A0841A48E084FA208000208515
:10DBA0006085A18524316354013100206054013126
:10DBB0006254638633330121E15403210133E1547C
:10DBC00001310133E1540133E25401330121E154C5
:10DBD0000133E254201C3A300A49102216F06AF947
:10DBE000054B1C60044B1B68074A11687C2258686F
:10DBF0008B5AC3188B5210BD1C2B0020B80B000091
:10DC000010270000E0560300182B002010B5002359
:10DC1000A022920083500122427400220E494352F6
:10DC2000012149429D24A400015302720024447240
:10DC3000A224A4000351094C0353094C0255C93CCA
:10DC40000255C38183810274064BC152E23BC05826
:10DC50000BF0A4F910BDC046720200007E02000065
:10DC6000710200008602000010B5041C044B036022
:10DC700009F008F8201C0CF0CDFC201C10BDC0469B
:10DC800060850300F0B587B0041C8D79144B1B68C8
:10DC9000DB0708D413480AF035F90122104B1A604B
:10DCA000114816F02EF8114BE75AA67A281C06F0F8
:10DCB000E5FD0F4B00930F4B0193029703960495DC
:10DCC0000590084801210C4AAA230AF08DF8002289
:10DCD000A1239B00E252201CFFF798FF07B0F0BD84
:10DCE0005C2D0020602D002035C60100720200006E
:10DCF0000C57030018570300FB56030030B58BB0D8
:10DD0000041C437A002B19D04D4B1B68DB0708D449
:10DD10004C480AF0F7F80122494B1A604A4815F0BE
:10DD2000F0FFA37A494A0092494A0192029345487A
:10DD30000121484A7A230AF057F87EE0404B1B68DD
:10DD4000DB0708D43F480AF0DDF801223C4B1A609B
:10DD50003D4815F0D6FF3D4B00933F4B01933948AA
:10DD600001213C4A7F230AF03FF806A90B780122E3
:10DD70001340282213430B70236819226A442A2176
:10DD8000595C11702B21595C51701B226A4431215E
:10DD90001170443151701D226A441B31595C11705D
:10DDA000191C90314878507088789070C978D1707B
:10DDB00021226A448E21595C11708E335B78537036
:10DDC00003F0AAFA23236B441870000A58706068A5
:10DDD000211C04F035F825236B4480B21870000A2A
:10DDE0005870174B1B68DB0708D416480AF08AF8EE
:10DDF0000122134B1A60144815F083FFA17A06AD77
:10DE0000079B1B0A2A7A12061A43089B1B021B1443
:10DE10000E48009011480190029103920493094822
:10DE200001210C4A922309F0DFFF0123009360686F
:10DE3000211C2A1C0E330CF0F1F80BB030BDC0468B
:10DE40005C2D0020602D002035C6010044570300E2
:10DE500050570300FB5603007C570300AC570300E8
:10DE600030B585B0041C0D1C84230268D258A2234F
:10DE70009B00C250C37A002B19D11D4B1B68DB07D6
:10DE800008D41C480AF03EF80122194B1A601A48BF
:10DE900015F037FFA37A194A0092194A01920293AA
:10DEA00014480121174A6C2309F09EFF18E0104B1B
:10DEB0001B68DB0708D40F480AF024F801220C4B3A
:10DEC0001A600D4815F01DFFA37A0C4A00920E4A05
:10DED00001920293074801210A4A6E2309F084FF48
:10DEE000AA889D239B00E2520123237205B030BD16
:10DEF0005C2D0020602D002035C601004C5603002B
:10DF0000E0570300FB5603000458030008B59D23A7
:10DF10009B00C05AFEF740FD08BDC046F0B547461D
:10DF200080B48EB0051C0E1C4C680F898B78984607
:10DF3000DF4B1B68DB0708D4DE4809F0E3FF012252
:10DF4000DB4B1A60DC4815F0DCFE23785B08DB4A0B
:10DF50000092DB4A019202930397D6480121D94AE5
:10DF6000C02309F041FFE27823791B0213432A689A
:10DF7000518D8B4242D0D4498B423FD0D3498B4202
:10DF800003D13E21525C022A38D0D04A93420DD1AF
:10DF90006868002101F070F9011E2FD043460093FC
:10DFA0006868221C3B1C0CF039F827E0237801221A
:10DFB00093432E2B0BD1E27B237C1B0213431AB21B
:10DFC000002A04DB01339BB2E3731B0A23746278DB
:10DFD000A3781B021343BE4A9A1892B2BD498A42E3
:10DFE00004D8013B9BB263701B0AA37043460093A5
:10DFF0006868291C221C3B1C0BF086FF2378012239
:10E000009343282B00D098E10F2F00D07CE1E27AD7
:10E01000237B1B021343B04AAB52A54B1B68DB07A3
:10E0200008D4A44809F06EFF0122A14B1A60A2484F
:10E0300015F067FEA94B0093A94B01939D48012160
:10E04000A04A81235B0009F0CFFE994B1B68DB07D8
:10E0500008D4984809F056FF0122954B1A6096485B
:10E0600015F04FFE6378A67836021E436179A379D6
:10E070001B020B431A1CE0790004031C1343207A93
:10E0800000061843637AA17A0902194309040914A6
:10E09000627BA37B1B0213431B041B148F4A009259
:10E0A000904A0192029603900491059381480121C0
:10E0B000844A0623FF3309F097FE6079A2791202A1
:10E0C0000243E3791B0413431A1C237A1B061343F0
:10E0D00029689022885883421DD1754B1B68DB0745
:10E0E00008D4744809F00EFF0122714B1A6072487F
:10E0F00015F007FEAB7A794A00927B4A01920293AF
:10E100006C4801216F4A85235B0009F06DFE281CD5
:10E11000FFF7FCFEDFE3667AA27A120232438E2614
:10E12000895B17B20EB2B74202DB21D183421FD204
:10E130005F4B1B68DB0708D45E4809F0E3FE012251
:10E140005B4B1A605C4815F0DCFD644B0093674B39
:10E150000193584801215B4A1223FF3309F044FE22
:10E16000EB7A002B00D0B6E3281CFFF7C7FDB2E323
:10E170004F4B1B68DB0708D44E4809F0C3FE012251
:10E180004B4B1A604C4815F0BCFD544B0093584B58
:10E190000193484801214B4A8D235B0009F024FE7E
:10E1A0006868291C01F09EFB6278A3781B02134368
:10E1B000504AAB52627BA37B1B0213431AB2002A64
:10E1C00002DB01339BB200E04B4B4C4AAB52384B65
:10E1D0001B68DB0708D4374809F094FE0122344B52
:10E1E0001A60354815F08DFD8E232A68D25EA12372
:10E1F0009B00EB5E01333949009141490191029244
:10E2000003932C4801212F4A2623FF3309F0ECFD0C
:10E2100009AC2378012213402A22134323702A6871
:10E2200025236B442A21515C19702B21525C5A70B2
:10E2300027236B442F4AAA5C1A702E4AAA185278D8
:10E240005A706868291C03F0FBFD29236B4480B2D7
:10E250001870000A58700023E371154B1B68DB0728
:10E2600008D4144809F04EFE0122114B1A601248DE
:10E2700015F047FD09ACE378227912021A430A9B94
:10E280001B021B14154900911E4901910292039330
:10E29000084801210B4A3823FF3309F0A5FD01236B
:10E2A00000936868291C221C07330BF0B7FE12E3A9
:10E2B0005C2D0020602D002035C601004C56030067
:10E2C00028580300FB56030031750000197900003F
:10E2D000CF8AFFFF167900007E020000445703003A
:10E2E0007C5703004858030088580300D0580300A7
:10E2F000DC58030072020000FFFF000086020000ED
:10E30000EC58030010590300E04B1B68DB0708D4EE
:10E31000DF4809F0F7FD0122DC4B1A60DD4815F0FB
:10E32000F0FCDD4B0093DD4B0193D9480121DC4A21
:10E33000A2235B0009F058FDCDE22A2B00D0E4E1D6
:10E34000082F00D0C8E1D14B1B68DB0708D4D048A8
:10E3500009F0D8FD0122CD4B1A60CE4815F0D1FC52
:10E360006378A178090219436279A3791B021343E8
:10E370001B041B14CB4A0092CB4A019202910393D7
:10E38000C3480121C64A5023FF3309F02DFD2968F7
:10E390008E228B5A01338B526279A3791B0213436D
:10E3A0001AB2002A02DB01339BB200E0BF4BC04A25
:10E3B000AB52B64B1B68DB0708D4B54809F0A2FD89
:10E3C0000122B24B1A60B34815F09BFC8E232A68D9
:10E3D000D35E5A1EB3490091B6490191029203934C
:10E3E000AB480121AE4AAB235B0009F0FDFC2B6872
:10E3F0009020A02292001958A9506178A2781202A8
:10E400000A43AD496A5212316A5A01326A520126F0
:10E410006E7209AC227801210A402E210A43227033
:10E4200025226A442A21595C11702B21595C5170B4
:10E4300027226A4400211170517031226A4401215F
:10E4400011700021517029226A44195C11709033B7
:10E450005978517099789170DB78D3702D236B4483
:10E4600000221A705A709A70DA70884B1B68334217
:10E4700008D1874809F046FD0122844B1A6085487F
:10E4800015F03FFC874B00938C4B01938048012192
:10E49000834A6A23FF3309F0A7FC002421E068685F
:10E4A000231C08339B00C3185968A94218D04B7A23
:10E4B000002B15D003F0C4FC33236B4480B21870DA
:10E4C000000A5870231C08339B006A689446634412
:10E4D000596801230093686809AA10330BF09EFD68
:10E4E0000134774B1B68002B50D14C200CF096F870
:10E4F000061C012303704370002100228170C82094
:10E500007060783830817081B18196218900F18105
:10E51000B939FF39318271821038B082FA20400156
:10E52000F082C820C000308308207083B183203976
:10E53000F1837B393184053171846248B08462484B
:10E54000F084FA20800030857085B18524317354C1
:10E55000013100207054013172547386333301212C
:10E56000F15403210133F15401310133F1540133EA
:10E57000F25401330121F1540133F254301C3A308A
:10E580005249102215F096FC4D4B1E604C4B1A68F8
:10E590003623D35C9C4282DB06A90B780122134010
:10E5A0002C2213430B702B6819226A442A21595CD0
:10E5B00011702B21595C51701B226A443E49695CE1
:10E5C00011703D496918497851701D226A449021A3
:10E5D000595C1170191C903148785070887890708F
:10E5E000C978D17021226A448E21595C11708E3312
:10E5F0005B785370254B1B68DB0708D4244809F06F
:10E6000081FC0122214B1A60224815F07AFB2A4B2B
:10E61000E95A2B6890229A588E201B5E2148009060
:10E620002B480190029103920493194801211C4A3E
:10E63000BE235B0009F0D8FB012400946868291C04
:10E6400006AA0B230BF0EAFC2868002104F08EF9DF
:10E650000E4B1B68234208D10D4809F053FC0122E0
:10E660000A4B1A600B4815F04CFB0E4B0093194BEC
:10E670000193074801210A4AC2235B0009F0B4FB59
:10E680002868291C03F0A8F925E1C0465C2D00206C
:10E69000602D002035C601004C560300345903009C
:10E6A000FB5603004457030054590300FFFF0000CA
:10E6B00086020000EC580300720200007859030043
:10E6C0001C2B0020B80B000010270000E0560300B0
:10E6D000B4590300E8590300814B1B68DB0708D4D9
:10E6E000804809F00FFC01227D4B1A607E4815F02E
:10E6F00008FB7E4B00937E4B01937A4801217D4AB3
:10E70000C6235B0009F070FBE5E02C2B00D0C5E0D0
:10E710000B2F00D0A9E0724B1B68DB0708D47148AF
:10E7200009F0F0FB01226E4B1A606F4815F0E9FA10
:10E730006378A67836021E436079A3791B020343EF
:10E740001A1CE17909040B1C1343217A09061943A9
:10E75000627AA37A1B0213431B041B14664A0092BD
:10E76000664A01920296039104935E480121614A30
:10E77000CC235B0009F038FB594B1B68DB0708D43E
:10E78000584809F0BFFB0122554B1A60564815F056
:10E79000B8FA8E262B68995F627AA37A1B0213431C
:10E7A0001B041B14544A0092554A01920291039390
:10E7B0004C4801214F4ACD235B0009F015FB6079DD
:10E7C000A27912020243E3791B0413431A1C237A31
:10E7D0001B061343A0229200AB50A1218900627A4C
:10E7E000A37A1B0213431B041B146A5AD318013B60
:10E7F0006B526079A27912020243E3791B0413433E
:10E800001A1C237A1B061343902229688B502A680E
:10E81000617AA37A1B020B431B041B14915BCB1878
:10E82000013B935301246C722868002104F09EF888
:10E830002B4B1B68234208D12A4809F063FB0122B5
:10E84000274B1A60284815F05CFA2B4B00932D4B90
:10E85000019324480121274AAA23FF3309F0C4FA6F
:10E860002868291C03F0B8F835E01D4B1B68DB074E
:10E8700008D41C4809F046FB0122194B1A601A48BB
:10E8800015F03FFA194B00931F4B019315480121D6
:10E89000184AB223FF3309F0A7FA1CE0E278237983
:10E8A0001B0213432A68518D8B420ED0002B0CD0D3
:10E8B0001649591889B21648814206D915498B4222
:10E8C00009D13E23D35C022B05D16B6858680368DD
:10E8D0005B69311C98470EB004BC9046F0BDC04641
:10E8E0005C2D0020602D002035C601004C56030031
:10E8F000145A0300FB56030044570300285A030030
:10E90000EC580300E85903005C5A0300D08AFFFF6B
:10E91000E70300001979000070B5041C0E1C151CDB
:10E92000037A002B0BD1FFF771F9064BE018311C6D
:10E93000072215F0BFFA044BE552012000E0002049
:10E9400070BDC046760200007E02000038B5041C8F
:10E9500004A800786260A1722360E0721C200BF0B2
:10E960005DFE051C211C1231C82252000AF018FC61
:10E97000D2235B00E5500022E033E252044BE25424
:10E98000C93BE254201CFFF741F9201C38BDC046AA
:10E990007102000010B5041C024B036008F072F90C
:10E9A000201C10BD6085030010B582B000230093C9
:10E9B0000020012102221B4B07F0C4FD002804D0D7
:10E9C0004621FF31184A01F06FFF18481830012125
:10E9D000174A07F08DFD002804D0A4214900124AEF
:10E9E00001F062FF114B9C69FEF7AEFA4368590CC7
:10E9F000D803FA225200002380185941FA229200CB
:10EA0000002314F029FF011C201C002207F040FD08
:10EA1000002804D04C21FF31034A01F045FF02B029
:10EA200010BDC046FC290020705A0300FC2A0020BB
:10EA300039DB010070B5051C0C1C002614E00C4BE2
:10EA40001A68002A0FD0331C10339B00D318586863
:10EA5000002808D0036ADB78002B04D003685B6AC7
:10EA6000291C221C98470136092EE8DD70BDC046DE
:10EA7000182B002030B585B0041C05882B4B1B6873
:10EA8000DB0708D42A4809F03DFA0122274B1A6017
:10EA9000284815F036F9281C05F064FF264B009332
:10EAA000264B01930290039521480121244A8B2390
:10EAB0005B0009F099F9201CFDF78CFE201C02F088
:10EAC0006FFA201C02F0ACFB002513E01D4B1A6806
:10EAD000002A0ED02B1C10339B00D3185868002836
:10EAE00007D0036ADB78002B03D003689B6A211CE4
:10EAF00098470135092DE9DD0C4B1B68DB0708D46D
:10EB00000B4809F0FFF90122084B1A60094815F07B
:10EB1000F8F8094B00930C4B019305480121084A72
:10EB20002623FF3309F060F905B030BD5C2D0020CD
:10EB3000602D002035C60100805A0300885A03006A
:10EB4000765A0300182B00209C5A030038B5041C89
:10EB50000C4B1B68002B07D134200BF05FFD051C0C
:10EB60000BF0BAFA074B1D60064B1B6800221A60B7
:10EB70009A7B01329A73586803681B69211C984775
:10EB800038BDC046182D0020F0B5A3B0041CAA4B18
:10EB90001B68002B07D134200BF040FD051C0BF047
:10EBA0009BFAA54B1D60A44B1868A1880BF030F9A7
:10EBB000051E00D13DE12023E35C012293433C2B61
:10EBC00044D19E4E3068783007F058FC37682523D2
:10EBD000E15C0133E35C1B020B431A1C2723E65C58
:10EBE0003604331C13432822A65C36061E43292311
:10EBF000E05C0133E25C120202430133E35C1B047C
:10EC000013431A1C2C23E35C1B0613433E677B67EC
:10EC10008B4B1B68DB0708D48A4809F073F9012283
:10EC2000874B1A60884815F06CF8844B1B689A6F04
:10EC30001B6F0393854B0093854B01930292814890
:10EC40000121844AA823FF3309F0CEF8824BE85C07
:10EC5000002865D12023E35CDB0761D4784B1B6877
:10EC6000DB0708D4774809F04DF90122744B1A608C
:10EC7000754815F046F8261C2036E28B7148311C89
:10EC800009AB05F09FFC6E4B1B68DB0708D46D4891
:10EC900009F038F901226A4B1A606B4815F031F817
:10ECA0002023E35C5808DB07DB0FDBB2E18B227A21
:10ECB0006A4F00976A4F019702900393049105925F
:10ECC00060480121634AD8235B0009F08DF85C4B52
:10ECD0001B68DB0708D45B4809F014F90122584B84
:10ECE0001A60594815F00DF85C4B00935D4B019389
:10ECF00009AB029353480121564AB223FF3309F06E
:10ED000073F806A9A3880B804E60E38B0B81237AEE
:10ED1000023B5A1E93418B70281CFFF7FFF888E0D6
:10ED2000002829D12023E35CDB0725D5281CAA3045
:10ED3000FF30211C2031E28B15F0BCF8464AE18BF4
:10ED4000AB5CCB18AB543E4B1B68DB0708D43D488B
:10ED500009F0D8F801223A4B1A603B4814F0D1FF71
:10ED6000414B0093414B019336480121394AE52339
:10ED70005B0009F039F85CE000285AD02818AA3066
:10ED8000FF30E28B013A211C213115F093F820234A
:10ED9000E35CDB071ED5304AE18BAB5CCB18013B53
:10EDA000AB54274B1B68DB0708D4264809F0AAF8A8
:10EDB0000122234B1A60244814F0A3FF2A4B00932E
:10EDC0002B4B01931F480121224ADA23FF3309F01C
:10EDD0000BF82EE01A4B1B68DB0708D4194809F022
:10EDE00091F80122164B1A60174814F08AFF1E4B47
:10EDF0000093204B019313480121164ADE23FF3371
:10EE000008F0F2FF09A9A3880B802B1CAA33FF335B
:10EE10004B60114AA85CE38BC318013B0B81237A3A
:10EE2000023B581E83418B700023AB54281CFFF714
:10EE300075F823B0F0BDC046182D0020142D002019
:10EE40005C2D0020602D002035C60100045B03000E
:10EE50000C5B0300EB5A0300710200004C560300E8
:10EE6000345B03002C6803006C5B0300705B0300E1
:10EE7000905B0300B05B030070B5061C184B1B6869
:10EE8000002B07D134200BF0C9FB041C0BF024F934
:10EE9000134B1C60124B1C68B188201C0AF0B8FF91
:10EEA000051E1BD0C37A002B03D1637B0133637330
:10EEB00002E0A37B0133A373D2235B00EA5863898A
:10EEC000128B9B1A638100232B72606803689B6816
:10EED000311C9847281C311CFEF7D4FE70BDC0467B
:10EEE000182D002070B5051C0E1C114B1B68002B43
:10EEF00007D134200BF092FB041C0BF0EDF80C4B07
:10EF00001C600B4B1C68201C291C0AF081FF002888
:10EF10000CD0084BC652237A002B02D0FEF7EEFE2F
:10EF200004E060680368DB680021984770BDC04654
:10EF3000182D00207E02000030B585B0041C214B46
:10EF40001B68002B07D134200BF068FB051C0BF06D
:10EF5000C3F81C4B1D601B4B1D68A188281C0AF0C0
:10EF600057FF041C184B1B68DB0708D4174808F030
:10EF7000C9FF0122144B1A60154814F0C2FEA37A8F
:10EF8000144A0092144A0192029310480121134A34
:10EF9000A4235B0008F028FFE37A002B05D12B7A2D
:10EFA000002B0DD1013363720AE0012B08D12B7ABB
:10EFB000002B03D0201CFEF7A1FE01E001236372A9
:10EFC00005B030BD182D00205C2D0020602D0020E4
:10EFD00035C601006C5B0300D05B0300EB5A0300F5
:10EFE000F0B583B0051C964B1B68DB0708D4954829
:10EFF00008F088FF0122924B1A60934814F081FEBA
:10F00000924B0093924B01938E480121914A062323
:10F01000FF3308F0E9FE904B1A686C23D35C062B93
:10F0200017D1874B1B68DB0708D4864808F06AFFB6
:10F030000122834B1A60844814F063FE874B0093CF
:10F04000874B01937F480121824A86235B0008F0A9
:10F05000CBFE844B1B68002B07D134200BF0DEFA6B
:10F06000041C0BF039F87F4B1C607E4B1C682B7D19
:10F07000012B6DD12669637B013B6373301C291C16
:10F08000FEF7EEFE60680368DB68291C9847764B44
:10F090001B68002B50D14C200BF0C0FA051C01233B
:10F0A00003704370002100228170C82068607838A6
:10F0B00028816881A98196218900E981B939FF39C0
:10F0C000298269821038A882FA204001E882C8208B
:10F0D000C000288308206883A9832039E9837B390D
:10F0E0002984053169846148A8846148E884FA204C
:10F0F000800028856885A98524316B540131002062
:10F10000685401316A546B8633330121E954032179
:10F110000133E95401310133E9540133EA54013335
:10F120000121E9540133EA54281C3A305149102294
:10F1300014F0C0FE4C4B1D604B4B1A683923D35C56
:10F14000002B79D1237A002B76D10133737273E0CF
:10F15000022B71D12768381C291CFEF781FE6068DC
:10F160000368DB68291C98473F4B1B68002B50D174
:10F170004C200BF053FA061C01230370437000214E
:10F1800000228170C8207060783830817081B18130
:10F1900096218900F181B939FF39318271821038A5
:10F1A000B082FA204001F082C820C00030830820DD
:10F1B0007083B1832039F1837B39318405317184C7
:10F1C0002A48B0842A48F084FA208000308570856F
:10F1D000B1852431735401310020705401317254CF
:10F1E000738633330121F15403210133F15401318A
:10F1F0000133F1540133F25401330121F15401334D
:10F20000F254301C3A301B49102214F053FE164BB6
:10F210001E60154B1A683923D35C002B03D0A888D5
:10F22000FDF750FA08E0237A002B03D0381CFEF7D4
:10F2300065FD01E001237B720023236003B0F0BD74
:10F240005C2D0020602D002035C601006C5B0300A2
:10F25000F45B0300EB5A0300142D00205C7A0300DA
:10F26000085C0300182D00201C2B0020B80B0000A8
:10F2700010270000B05A0300F0B583B0051C0F1C26
:10F28000002600230193404B00931EE0002F06D080
:10F29000331C08339B00EB185B68BB4214D0331C53
:10F2A00008339B00EB185B685A7A002A0CD0374A67
:10F2B0009A5A11B2002907DB69460020095E10B294
:10F2C000814201DD019300920136314B1B68002B16
:10F2D00050D14C200BF0A2F9041C012303704370A1
:10F2E000002100228170C820606078382081608110
:10F2F000A18196218900E181B939FF39218261829A
:10F300001038A082FA204001E082C820C00020838B
:10F3100008206083A1832039E1837B392184053172
:10F3200061841C48A0841C48E084FA208000208569
:10F330006085A1852431635401310020605401317E
:10F340006254638633330121E15403210133E154D4
:10F3500001310133E1540133E25401330121E1541D
:10F360000133E254201C3A300C49102214F0A2FD63
:10F37000074B1C60064B1A683623D35C9E4285DB24
:10F38000019803B0F0BDC046FF7F00008602000078
:10F390001C2B0020B80B000010270000B05A0300FF
:10F3A00041607047014B183303607047B05A030047
:10F3B000014B183303607047B05A0300F0B55F4645
:10F3C0005646C0B48DB0051C012464420026671C5B
:10F3D000BE4B1B68002B50D14C200BF01FF9041CB6
:10F3E000012303704370002100228170C8206060F7
:10F3F000783820816081A18196218900E181B93925
:10F40000FF39218261821038A082FA204001E08217
:10F41000C820C000208308206083A1832039E183B5
:10F420007B39218405316184A948A084A948E084FE
:10F43000FA20800020856085A18524316354013144
:10F440000020605401316254638633330121E1545A
:10F4500003210133E15401310133E1540133E2541A
:10F4600001330121E1540133E254201C3A309A491E
:10F47000102214F01FFD954B1C60944B1A68362324
:10F48000D15C381C14F0DCF90C1E00D10026231CC2
:10F4900008339B00EB185B681A7A002A00D10AE156
:10F4A000D222520099580B8B002B00D103E10AAFF6
:10F4B000381C09F0B3FD0A990B785A1E9341DBB250
:10F4C0004A1C9246BA88013A97B2142F04D84A7857
:10F4D000012082434A7000E00123002B00D1B9E0F3
:10F4E000231C08339B00EB185B685A7C002A00D170
:10F4F000E1E0142F34D9D42252009B5C002B2AD097
:10F500009A44FB1A142B02DD01239C4601E00023E0
:10F510009C46012053461B780122934362461A43BE
:10F52000131C524613704B785B085A0053461B78E5
:10F53000034013435246137003420AD1231C08337D
:10F540009B00EB185A68D4235B00D35CFB1A9FB274
:10F5500006E0142704E04A78012313434B70142774
:10F5600053461B78012293433C2B47D109A806F050
:10F5700085FF5A4B1B68996F099808AA06F078FF17
:10F58000574B1B68DB0708D4564808F0BBFC012228
:10F59000534B1A60544814F0B4FB504B9B461B6805
:10F5A0001A6F9B6F0393514B0093514B019302923F
:10F5B000099B0493089B05934A4801214D4A9123D6
:10F5C0009B0008F011FC5B461B68089A069200221B
:10F5D00007921A6F5B6F0698079912184B415146B4
:10F5E0004A71100A8871100CC871120E0A724B729F
:10F5F0001A0A8A721A0CCA721B0E0B73231C083368
:10F600009B00EB185B689D229200985A3A4A995ADF
:10F610000123009352463B1C01F040FE071E03D01D
:10F620003649374A01F040F9002F07D1231C08332F
:10F630009B00EB185A68537C013B5374231C08331E
:10F640009B00EB185A68D2235B00D3581B8B002B0E
:10F650002ED130E02B7B002B2DD0231C08339B00B8
:10F66000EB185B689D229200985A234A995A00230E
:10F67000009352463B1C01F011FE00280CD12B7B5D
:10F68000013B2B73231C08339B00EB185A68D223D1
:10F690005B00D05809F08AFC231C08339B00EB1850
:10F6A0005A68D2235B00D3581B8B002B02D102E097
:10F6B000012600E00126032C00D088E6002E00D0B1
:10F6C00085E60DB00CBC92469B46F0BD1C2B00207D
:10F6D000B80B000010270000B05A0300142D0020C2
:10F6E0005C2D0020602D002035C60100045B030066
:10F6F0002C5C0300EB5A03007E0200004F02000066
:10F70000E05A0300F0B5474680B48AB0041C6A4B47
:10F710001B68002B07D134200AF080FF051C0AF07B
:10F72000DBFC654B1D60644B1D682388012B29D1D0
:10F73000624B1B68DB0708D4614808F0E3FB012239
:10F740005E4B1A605F4814F0DCFA237A5E4A00923E
:10F750005E4A019202935A4801215D4A9F239B0011
:10F7600008F042FB2A7B237AD3182B73227A6B8909
:10F770009B1A9BB26B81002B00D198E0281CFFF7ED
:10F780001DFE94E0372B00D091E0E388002B1DD0C4
:10F790004A4B1B68DB0708D4494808F0B3FB012239
:10F7A000464B1A60474814F0ACFAE488201C04F079
:10F7B00081FF454B0093474B0193029403904048CF
:10F7C0000121434A444B08F00FFB70E03B4B1B68A0
:10F7D000DB0708D43A4808F095FB0122374B1A6042
:10F7E000384814F08EFA384B00933C4B0193344860
:10F7F0000121374AA6239B0008F0F6FAA188281CAD
:10F800000AF006FB071CD2235B00C15806A809F0CA
:10F8100005FCD4235B00FE5C0136069B9C466644D7
:10F82000264B1B68DB0708D4254808F06BFB012238
:10F83000224B1A60234814F064FA33785A08904631
:10F84000DB07DB0FDCB2D2235B00F95808A809F014
:10F85000E5FB1D4B0093224B019343460293039417
:10F86000089B0493059616480121194AA7239B007B
:10F8700008F0BAFA3378DB070BD40022D4235B00FC
:10F88000FA54043BF85809F091FB6B89013B6B81FA
:10F8900004E0D4225200BB5C1333BB547B7C0133A5
:10F8A0007B746B89002B02D0281CFFF787FD0AB000
:10F8B00004BC9046F0BDC046182D00205C2D0020F1
:10F8C000602D002035C601004C560300605C03002B
:10F8D000EB5A03007C5C03008D020000985C03007F
:10F8E000AC5C0300F8B5061C0D1C00240CE0231CC6
:10F8F00008339B00F3185868A84204D0037A002B01
:10F9000001D0FEF703FB01342E4B1B68002B50D1B6
:10F910004C200AF083FE071C012303704370002172
:10F9200000228170C8207860783838817881B98168
:10F9300096218900F981B939FF39398279821038E5
:10F94000B882FA204001F882C820C000388308201D
:10F950007883B9832039F9837B39398405317984F7
:10F960001948B8841948F884FA20800038857885C9
:10F97000B98524317B5401310020785401317A5407
:10F980007B8633330121F95403210133F9540131CA
:10F990000133F9540133FA5401330121F95401338D
:10F9A000FA54381C3A300A49102214F083FA054BF5
:10F9B0001F60044B1A683523D35C01339C4296DBED
:10F9C000F8BDC0461C2B0020B80B0000102700001B
:10F9D000B05A0300038AC384012329228354013AC5
:10F9E00083540023436383638385044B438503234C
:10F9F00006328354013283547047C046307500008C
:10FA0000F0B587B0061C171C68460AF0BAFF7B6881
:10FA10003A689C1AA4100023019302930393002CCC
:10FA200009D0264B9C4201D90AF014FEA0000AF02E
:10FA3000F5FD051C00E0002501950295A4002C1998
:10FA400003943C687F6807E0002D03D0281C211C2C
:10FA50000AF097FF04340435BC42F5D10295301CFE
:10FA6000694601AA07F0E4FA051C019C029E0DE01C
:10FA700020680C38124B984207D083685A1E826067
:10FA8000002B02DC05A90AF049FF0434A642EFD19D
:10FA90000198002801D00AF0BDFD00980C38084BF1
:10FAA000984207D083685A1E8260002B02DC04A9AA
:10FAB0000AF034FF281C07B0F0BDC046FFFFFF3F2F
:10FAC0003032002008B4024B9C46043808BC604722
:10FAD00001FA0100F0B54F464646C0B493B0061C8B
:10FAE0000C1C171C081CCE490AF005FE002821D169
:10FAF000CC4B1B68DB0708D4CB4808F003FA012283
:10FB0000C84B1A60C94814F0FCF8308AB368598DA4
:10FB100080235B051A6E5B6EC54C009401900291C8
:10FB200003920493C0480021C24A752308F0BAF931
:10FB3000012526E2201CC0490AF0DDFD00280CD07A
:10FB400069E02B1C08339B00F268944663445968B3
:10FB5000301C05F0F5FB013500E00025B74B1B68B4
:10FB6000002B50D14C200AF059FD041C01230370D6
:10FB70004370002100228170C820606078382081A5
:10FB80006081A18196218900E181B939FF39218203
:10FB900061821038A082FA204001E082C820C000B3
:10FBA000208308206083A1832039E1837B3921846D
:10FBB00005316184A248A084A248E084FA20800034
:10FBC00020856085A1852431635401310020605473
:10FBD00001316254638633330121E154032101333F
:10FBE000E15401310133E1540133E2540133012185
:10FBF000E1540133E254201C3A309349102214F0AE
:10FC000059F98E4B1C608D4B1A683623D35C9D428C
:10FC100097DB0125B5E1201C8C490AF06CFD00281A
:10FC20000CD069E0231C08339B00F26894466344BF
:10FC30005968301C05F046FB013400E000247F4B7E
:10FC40001B68002B50D14C200AF0E8FC051C012356
:10FC500003704370002100228170C82068607838EA
:10FC600028816881A98196218900E981B939FF3904
:10FC7000298269821038A882FA204001E882C820CF
:10FC8000C000288308206883A9832039E9837B3951
:10FC90002984053169846A48A8846A48E884FA207E
:10FCA000800028856885A98524316B5401310020A6
:10FCB000685401316A546B8633330121E9540321BE
:10FCC0000133E95401310133E9540133EA5401337A
:10FCD0000121E9540133EA54281C3A305A491022D0
:10FCE00014F0E8F8554B1D60544B1A683623D35C6A
:10FCF0009C4297DB012544E138687B681B1A072B7F
:10FD000009D90430311C14310AF0F5FC002805D162
:10FD10000123984604E00023984601E0002398461A
:10FD20004346002B00D1D5E0201C49490AF0E3FCF2
:10FD3000002807D0201C47490AF0DDFC002801D02C
:10FD4000002398464346002B00D1C3E0386842495F
:10FD50000AF0D1FC002803D1B3685B8D994605E019
:10FD60003B68186813F0D5FF83B2994638687B6802
:10FD70001B1A9B10042B07D1083038490AF0BBFC32
:10FD8000002803D1454602E0002500E00025002DB3
:10FD900032D007AB1A78012111406A220A431A7047
:10FDA000B1681D226A442A20085C10702B20095C6F
:10FDB00051701F226A44494611704946080A507022
:10FDC00021226A44317C1170717C517000221A72B8
:10FDD00038680C3022490AF08EFC002801D101233A
:10FDE00000E0002307AA5372F0680123009300216A
:10FDF00009330AF023F9C4E038687B681B1A9B10AA
:10FE0000032B06D1083017490AF075FC002800D1F1
:10FE10004546002D28D0301C494605F0E3FCB0E0F3
:10FE2000405D03005C2D0020602D002035C60100E0
:10FE30007C5D0300625D0300E05D03001C2B00207D
:10FE4000B80B000010270000D85C0300EC5D030035
:10FE5000F85D03000C5E03005C9D0300145E03006C
:10FE6000105E0300185E030038687B681B1A9B1045
:10FE7000032B06D1083046490AF03DFC002800D18A
:10FE80004546002D26D007AA1378012119406A2380
:10FE90000B431370B1681D236B442A20085C187053
:10FEA0002B20095C59701F236B4449461970494641
:10FEB000080A587021236B44317C1970717C597089
:10FEC00002231372F068013B0093002109330AF00A
:10FED000B5F856E00CA8211C0AF053FD7B683A687F
:10FEE0009C1AA41000230D930E930F93002C09D09D
:10FEF000284B9C4201D90AF0ADFBA0000AF08EFB12
:10FF0000051C00E000250D950E95A4002C190F94FA
:10FF10003C687F6807E0002D03D0281C211C0AF0F4
:10FF200030FD04340435BC42F5D10E95301C0CA9CB
:10FF30000DAA07F07DF8051C0D9C0E9E0DE02068B3
:10FF40000C38154B984207D083685A1E8260002BEC
:10FF500002DC11A90AF0E2FC0434A642EFD10D98AC
:10FF6000002801D00AF056FB0C980C380A4B984236
:10FF700007D083685A1E8260002B02DC10A90AF0A9
:10FF8000CDFC281C13B00CBC90469946F0BDC04671
:10FF9000245E0300FFFFFF3F3032002008B4024B15
:10FFA0009C46043808BC6047D5FA010010B5041C13
:10FFB000438D002B0DD0842281688A58416B521AE0
:10FFC0009A4206D9002105F009FAA2688423D35881
:10FFD0006363A38D002B0ED08422A1688A58A16B85
:10FFE000521A9A4207D9201C002105F05FFAA26834
:10FFF0008423D358A36310BD08B507F05DFA08BD8C
:020000022000DC
:1000000010B5041C07F058FA00238E225200A350AA
:100010000432A35010BDC04610B5041C064B1A1C78
:10002000183202605C33436007F066FB201C0AF064
:10003000F1FA201C10BDC046D85C030008B4024B86
:100040009C46043808BC60471900020010B5041C27
:10005000044B1A1C183202605C33436007F04CFBFF
:10006000201C10BDD85C030008B4024B9C46043829
:1000700008BC60474D00020008B5082903D1802064
:10008000C00000F0ADFD08BDF0B557464E464546F0
:10009000E0B48EB02F23C35C002B00D1EBE00B88C3
:1000A0001B2B00D0E7E08C7BE4080A2C18DD0B1C2E
:1000B0000A7D0F339B791B021343724A934211D17D
:1000C0008B7DF02B10D10B1CCA7D0F335B7A1B028A
:1000D00013436D4A1268128D934207D0002306E045
:1000E000002304E0002302E0002300E00123002BB2
:1000F00000D0C0E08B7BDB0700D5BCE08B7B5B07CF
:100100009E0F4D7B8B7C062B13D1CB7C092B10D102
:100110000B7D442B0DD14B7D552B0AD18E225200E5
:1001200083580133835004326BB28758BC46634412
:10013000835000229CE04A235343C31830339B78FA
:10014000002B00D193E04A235343C31830331B796B
:10015000FF2B03D08F79BB4200D08CE04A2353435E
:10016000C31838335B79FF2B02D09E4200D082E067
:100170004A235343C318383303269E576BB29E421B
:1001800079DC4A235343C318383304269E576BB295
:100190009E4270DB894680464A23534343443033B2
:1001A000DB78012B06D101E0013300E00023092BAD
:1001B000FADD3CE0022B3AD1FCF7DEFA334B009338
:1001C000334B01930121334ADE2307F00DFE0AAFC2
:1001D0003B78012292461340773213433B704346EB
:1001E0009A6829236B4400262A21515C19702B211F
:1001F000525C5A700B1C6B441E705E704B46D91DCE
:100200002D206844062213F055FE53467B736BB2D3
:100210005B4233226A449BB213701B0A53704346FD
:10022000D8680096311C3A1C0E2309F007FFFCF732
:10023000A3FA6DB24946CB7998460B7A9C464F7A21
:100240008E7ACA7A0B7B114900911349019102956C
:1002500003944146049161460591069707960892DA
:10026000099301210B4AEF2307F0BEFD03E00132A1
:10027000002A00DC5FE70EB01CBC90469946A246FF
:10028000F0BDC0464D020000142D0020585E030052
:10029000605E0300425E0300685E030070B58AB0D2
:1002A000041C2C4B1B68DB0708D42B4807F02AFEE4
:1002B0000122284B1A60294813F023FD8E256D007A
:1002C00090235B00E3580393254B0093254B019348
:1002D0006359029320480121234A722307F084FDC9
:1002E0006359002B33D005AD2B78012213406A22CD
:1002F00013432B70A26815236B442A21515C0026FE
:1003000019702B21525C5A7017236B4400221A700B
:100310005A7019236B44227C1A70627C5A702E72B8
:10032000211C1D31FF311D206844042213F0C2FD41
:10033000211C2131FF3121206844042213F0BAFD31
:10034000E068009600212A1C112309F077FE0AB00C
:1003500070BDC0465C2D0020602D002035C6010018
:10036000B45E0300BC5E0300425E030010B5038E62
:10037000002B13D0842281688A58816A521A9A42CB
:100380000CD9041CFFF78AFF00238E225200A350D1
:100390000432A350A2688433D358A36210BDC04670
:1003A00010B53223C35C002B09D1041C32304A2221
:1003B00013F080FD01223223E254012000E00020EE
:1003C00010BDC04600B595B0038A838500222F2357
:1003D000C2542E3B2E328354074A028601A94B7029
:1003E000FE338B70CB72633B4B72383B8B72FFF7E3
:1003F000D7FF15B000BDC046204E0000F0B56D4CD3
:10040000A5441A780124A243662A04D0642A02D0A3
:10041000682A00D0C9E05D799C7924022C43058AC2
:10042000AC4200D0C1E01C1C061C642A00D07EE057
:100430000D89083DADB2604B1B68DB0708D45F48EF
:1004400007F060FD01225C4B1A605D4813F059FC17
:10045000271C08375948391C2A1C06AB04F0B2F88F
:10046000554B1B68DB0708D4544807F04BFD0122AD
:10047000514B1A60524813F044FC524B0093524BBC
:100480000193029506AB03934C4801214F4AED239B
:1004900007F0AAFCA17A336A9A78914226D1B28CED
:1004A000AA4223D11C88444B1B68DB0708D443486D
:1004B00007F028FD0122404B1A60414813F021FC4F
:1004C000404B0093424B01933C4801213F4AF723A4
:1004D00007F08AFCB28C306A391C13F0EBFC336AEB
:1004E0001C8033689B68301C98475EE0324B1B6869
:1004F000DB0708D4314807F005FD01222E4B1A60B6
:100500002F4813F0FEFBB18CA27A336A9B783148F6
:100510000090314801900295039104920593274879
:1005200001212A4A81235B0007F05EFC3DE0662A38
:100530003BD0682A39D135E02A1C10329200B368CA
:100540009C4662445368002B2AD0198A6279A379A9
:100550001B021343994223D1174B1B68DB0708D4B6
:10056000164807F0CFFC0122134B1A60144813F011
:10057000C8FB237A134A0092184A019202930F484B
:100580000121124A1223FF3307F02EFC2B1C1033DB
:100590009B00B268944663445B681B6A227ADA70F7
:1005A000013500E00025092DC6D9CF239B009D44CD
:1005B000F0BDC046C4FCFFFF5C2D0020602D002074
:1005C00035C60100F05E0300F85E0300E25E030042
:1005D000045F03005C7A0300105F03004C5F0300BC
:1005E00030B589B0051C1C1C0CAB1B880093231C68
:1005F000FFF704FF2378012293436A2B35D16279F8
:10060000A3791B0213432A8A93422ED1237A002B0B
:100610002BD106A8211C0931042213F04BFC07A89A
:10062000211C0D31042213F045FC114B1B68DB0724
:1006300008D4104807F066FC01220D4B1A600E48E2
:1006400013F05FFB298A6278A3781B0213430B4ADD
:10065000009201910293069B0393079B0493054824
:100660000021074A972307F01DFC09B030BDC046A2
:100670005C2D0020602D002035C60100605F030066
:10068000425E030030B587B0041C0AA820C8008869
:1006900000950190201C07F07BF91A4B236044332E
:1006A0006360194B1B68DB0708D4184807F02AFC65
:1006B0000122154B1A60164813F023FB03A81549B5
:1006C00004AA0AF08FF9114803A907F047FB039821
:1006D0000C38114B984207D083685A1E8260002B59
:1006E00002DC05A90AF01AF9231C263323620C2325
:1006F000A38400236363A363201C06F04FFF201C28
:1007000007B030BDC87A03005C2D0020602D0020AA
:1007100035C60100C85F03003032002085DF704716
:1007200084DF704771DF704730B583B0041C06A8C2
:1007300020C8008800950190201C07F029F90F4B74
:100740001A1C183222605C3363600023A362231CEE
:100750002C3323620623A384002206E04A2353435A
:10076000E3183033002199700132002AF6DD201C95
:1007700006F014FF201C03B030BDC046D85C030057
:1007800048DF704747DF70473BDF704732DF704715
:1007900061DF704760DF704787DF704786DF704733
:1007A00008B5024B1B68984708BDC046202B0020A7
:1007B00001225242014B1A837047C046882B002009
:1007C0008288014B1A837047882B002038B5041C9F
:1007D00009F0E6F9002513E00B4B1A68002A0ED049
:1007E0002B1C10339B00D3185868002807D0036ACD
:1007F000DB78002B03D003681B6A211C9847013566
:10080000092DE9DD38BDC046182B002008B5034886
:10081000034B036006F036FA08BDC04610300020D6
:100820006085030030B583B08389002B27D0C2894F
:10083000144B9A4223D1027C134B9B7D9A421ED1CA
:10084000041CC58A114B1B68DB0708D4104807F04D
:1008500059FB01220D4B1A600E4813F052FA0E4B51
:1008600000930E4B01930A4801210D4A8A235B0035
:1008700007F0BAFAA0880B4B5B68291C984703B0B5
:1008800030BDC04624150000882B00205C2D0020C0
:10089000602D002035C601001478030014600300A9
:1008A000FF5F0300202B0020F0B587B0104B98426B
:1008B00000D1FEE7161C0D1C041E11D004F0E2F856
:1008C000071CFBF759FF0B4B00930B4B0193029452
:1008D0000397049605950121084AD62307F084FA68
:1008E000082C02D0112C00D0FEE707B0F0BDC046A6
:1008F000EFBEADDE5C7A03002C600300765A030085
:1009000008B5034800210022FFF7CEFF08BDC0460E
:10091000EFBEADDE00B585B0FBF72EFF214B009397
:10092000214B01930121214AA52307F05DFA0820FC
:100930001F4908314722002308F0C2FE002803D0D7
:10094000AC211C4AFFF7B0FF1B4808F0AFFE00289F
:1009500003D0B021174AFFF7A7FF02A80023029394
:1009600080239B00436001230370FFF713FF0028DF
:1009700003D0B9210F4AFFF797FF0120FFF702FFCD
:10098000002803D0BD210B4AFFF78EFF0120FFF79F
:10099000FBFE002803D0C121064AFFF785FF05B002
:1009A00000BDC046045B03004C600300765A0300A0
:1009B000202B0020705A0300CD07020010B584B030
:1009C0008389002B26D0041C134B1B68DB0708D43B
:1009D000124807F097FA01220F4B1A60104813F0E3
:1009E00090F9104B0093104B01930C4801210F4AD2
:1009F000FE2307F0F9F903A9638A0B80A38A4B80D1
:100A0000A088FBF757FE002804D083214900084A3C
:100A1000FFF74AFF04B010BD5C2D0020602D0020C0
:100A200035C601001478030064600300FF5F030013
:100A3000F45F030008B58088002100220023FBF743
:100A40003BFE002803D0D521014AFFF72DFF08BD4A
:100A5000F45F030008B5074B1B68DB0708D40648A2
:100A600008F0CEF80122034B1A60044813F049F94C
:100A7000014808BD0C300020103000200D08020095
:100A800030B599B006F046FAFBF776FE041C0CA8C8
:100A90004B490DAA09F0A6FF201C0CA907F05EF92E
:100AA0000C980C3814A909F075FEFBF765FE041CC0
:100AB0000EA844490FAA09F095FF201C0EA907F0C3
:100AC0004DF90E980C3815A909F064FEFBF754FE99
:100AD000041C10A83C4911AA09F084FF201C10A98D
:100AE00007F03CF910980C3816A909F053FEFBF7F3
:100AF00043FE041C12A8354913AA09F073FF201CF9
:100B000012A907F02BF912980C3817A909F042FE28
:100B1000FFF700FFFFF79EFFFCF716FA458EA020B7
:100B200009F07CFD041C291C00F094FF284B1C607C
:100B3000102009F073FD04F0CDFA02A813F0E0F9DB
:100B4000099A069BD3180193FDF72EFF06F0B0F823
:100B5000204947230B8020480830FFF719FE002862
:100B600004D11D480830FDF785FFF1E7052820D1A5
:100B7000174B1868002810D07C23C15A00290CD0CC
:100B800003F07AF9124D2B687C24185B8422995863
:100B9000FDF750FF2B6800221A53FFF7F1FD0028E4
:100BA00003D094210D4AFFF77FFE1620FFF7EEFDDC
:100BB000CCE70028CAD09A21084AFFF775FEC5E79E
:100BC000045B0300746003007C6003007455030041
:100BD000182B002018280020202B0020705A03001A
:100BE00030B583B0041CE04B1B88984200D1B8E1BB
:100BF000002B1ED0FFF7D0FD002803D03221DB4AA6
:100C0000FFF752FEDA4B1B68DB0708D4D94807F020
:100C100079F90122D64B1A60D74813F072F8D74BF6
:100C20000093D74B0193D3480121D64A332307F0D1
:100C3000DBF88023DB009C4200D0B4E0D24B1B6881
:100C4000002B50D14C2009F0E9FC051C0123037056
:100C50004370002100228170C820686078382881A4
:100C60006881A98196218900E981B939FF392982F2
:100C700069821038A882FA204001E882C820C000AA
:100C8000288308206883A9832039E9837B39298454
:100C900005316984BD48A884BD48E884FA208000F5
:100CA00028856885A98524316B540131002068545A
:100CB00001316A546B8633330121E9540321013336
:100CC000E95401310133E9540133EA54013301217C
:100CD000E9540133EA54281C3A30AE49102213F08B
:100CE000E9F8A94B1D60A84B1A68518AAA4B5033EA
:100CF0001981002A50D14C2009F090FC051C0123D9
:100D000003704370002100228170C8206860783829
:100D100028816881A98196218900E981B939FF3943
:100D2000298269821038A882FA204001E882C8200E
:100D3000C000288308206883A9832039E9837B3990
:100D40002984053169849148A8849148E884FA206F
:100D5000800028856885A98524316B5401310020E5
:100D6000685401316A546B8633330121E9540321FD
:100D70000133E95401310133E9540133EA540133B9
:100D80000121E9540133EA54281C3A3081491022E8
:100D900013F090F87C4B1D607B4B1B689A8A7E4B4E
:100DA00050335A81B8E0F0231B019C4200D0B3E0DD
:100DB000754B1B68002B50D14C2009F02FFC051CF3
:100DC000012303704370002100228170C8206860F5
:100DD000783828816881A98196218900E981B9390B
:100DE000FF39298269821038A882FA204001E882FE
:100DF000C820C000288308206883A9832039E9839C
:100E00007B392984053169846048A8846048E88476
:100E1000FA20800028856885A98524316B5401312A
:100E20000020685401316A546B8633330121E95440
:100E300003210133E95401310133E9540133EA5408
:100E400001330121E9540133EA54281C3A30514955
:100E5000102213F02FF84C4B1D604B4B1A68118B6E
:100E60004D4B50331981002A50D14C2009F0D6FB4C
:100E7000051C012303704370002100228170C820EB
:100E80006860783828816881A98196218900E98184
:100E9000B939FF39298269821038A882FA204001C5
:100EA000E882C820C000288308206883A9832039ED
:100EB000E9837B392984053169843448A88434481E
:100EC000E884FA20800028856885A98524316B5440
:100ED00001310020685401316A546B86333301219B
:100EE000E95403210133E95401310133E954013359
:100EF000EA5401330121E9540133EA54281C3A3001
:100F00002449102212F0D6FF1F4B1D601E4B1B6898
:100F10005A8B214B50335A81002C20D01E48503020
:100F2000FFF73CFC002803D04621104AFFF7BCFC29
:100F30000F4B1B68DB0708D40E4806F0E3FF0122C5
:100F40000B4B1A600C4812F0DCFE0C4B0093134B59
:100F50000193084801210B4A472306F045FF024B45
:100F60001C8003B030BDC046842B00208460030089
:100F70005C2D0020602D002035C601001478030090
:100F8000A46003008F6003001C2B0020B80B00003E
:100F900010270000D45F0300202B0020B86003005E
:100FA00010B582B0011C0388192B34D01B2B02D042
:100FB000102B4CD129E0837B572B18D9031C027DC1
:100FC0000F339B791B021343254A934211D1837D32
:100FD000F02B10D1031CC27D0F335B7A1B0213432D
:100FE000204A1268128D934207D0002406E00024A4
:100FF00004E0002402E0002400E00124002C28D0BA
:10100000184B186801F0F2FA26E08020C000FFF7C4
:10101000E7FD002420E08379022B1CD1124B1B68D2
:10102000DB0708D4114806F06DFF01220E4B1A6051
:101030000F4812F066FE0F4B00930F4B01930B48C5
:1010400001210E4A8E2306F0CFFE002404E0002486
:1010500002E0012400E00024201C02B010BDC046C4
:101060004D020000142D00205C2D0020602D00207A
:1010700035C60100585E0300CC6003008F6003009A
:1010800010B5614A5021535C0120834301308343F2
:101090005354002353655D4B1B68002B50D14A30DD
:1010A00009F0BCFA041C01230370437000210022E4
:1010B0008170C8206060783820816081A18196218C
:1010C0008900E181B939FF39218261821038A0821B
:1010D000FA204001E082C820C000208308206083FD
:1010E000A1832039E1837B3921840531618448481B
:1010F000A0844848E084FA20800020856085A1858E
:1011000024316354013100206054013162546386FC
:1011100033330121E15403210133E154013101331F
:10112000E1540133E25401330121E1540133E2542B
:10113000201C3A303849102212F0BCFE334B1C60A0
:10114000324B1A68518A304B50331981002A50D1E2
:101150004C2009F063FA041C012303704370002142
:1011600000228170C8206060783820816081A18170
:1011700096218900E181B939FF39218261821038D5
:10118000A082FA204001E082C820C000208308200D
:101190006083A1832039E1837B3921840531618417
:1011A0001B48A0841B48E084FA20800020856085CD
:1011B000A18524316354013100206054013162540F
:1011C000638633330121E15403210133E1540131BA
:1011D0000133E1540133E25401330121E15401337D
:1011E000E254201C3A300C49102212F063FE074BE7
:1011F0001C60064B1A68044B5033928A5A810022B5
:101200009A81064B1A8010BD202B00201C2B002039
:10121000B80B000010270000D45F0300842B0020CF
:1012200008B50388302B27D006D8102B0FD0112BF0
:1012300011D0012B2DD11AE0372B25D002D8322B1B
:101240001ED026E0502B0AD0522B0CD021E0FFF705
:10125000B7FA00201EE0FFF7ABFA00201AE0FFF714
:101260009FFA012016E0FFF7E5FB002012E00A4B91
:101270001B6E984701200DE0FFF7A0FB012009E05D
:10128000FFF7D0FA012005E0034B1B6E98470120C1
:1012900000E0002008BDC046202B002070B584B0BF
:1012A00008AC2578194CA04229D0194CA14228D06D
:1012B000002B28D001AC0026019602966180E380C5
:1012C0000392002D0DD0211C01232370FBF7F0F9B0
:1012D000041E04D03821FF310E4AFFF7E5FA201C26
:1012E00012E001A902230B70FBF7E2F9041E04D0FF
:1012F0004221FF31074AFFF7D7FA201C04E0002003
:1013000002E0002000E0002004B070BD02300000C8
:1013100003300000F45F0300014B58897047C0465A
:10132000882B0020014B18667047C046202B0020F8
:10133000014B58607047C046202B0020014B1860BD
:101340007047C046202B002070B596B07B4C01231F
:101350005B42238306A87A491031102212F0AAFDBD
:10136000211C163106A8FBF7A1F9002803D036216D
:10137000744AFFF799FA714A111C14310120FBF7E6
:101380009FF9002803D03A216E4AFFF78DFA002317
:101390006A46138093706C4B1B68002B50D14C2015
:1013A00009F03CF9041C0123037043700021002262
:1013B0008170C8206060783820816081A181962189
:1013C0008900E181B939FF39218261821038A08218
:1013D000FA204001E082C820C000208308206083FA
:1013E000A1832039E1837B39218405316184574809
:1013F000A0845748E084FA20800020856085A1857C
:1014000024316354013100206054013162546386F9
:1014100033330121E15403210133E154013101331C
:10142000E1540133E25401330121E1540133E25428
:10143000201C3A304249102212F03CFD424B1C6005
:10144000414B1A683923D35C002B12D06B461B78B2
:101450000F24A343012213430F20034020210B43F9
:101460006D462B706B78A3431A4302400A436A709F
:1014700011E06B461B780F24A343012213430F2076
:10148000034010210B436D462B706B78A3431A4326
:1014900002400A436A706B469B78062293430222FD
:1014A0001343F7210B40E7398B4301210B43684677
:1014B000837001AB00259A700F26341C0C4010205D
:1014C00004431C705C700FAC0F9511951295139529
:1014D0001595D2B208210A43D2B204210A4310431F
:1014E0002070149303AE1B4B321C03CB03C21B882A
:1014F00013801096301C12F0B9FE2081301C12F0BF
:10150000B5FE60810AAA9560D560156102A90B4BF2
:10151000987D8870104808800A916946516064215E
:10152000918118880A33211CFBF7C8F8002803D0E2
:101530007D21044AFFF7B8F916B070BD882B002052
:10154000D45F0300F45F03001C2B0020B80B0000E5
:1015500010270000DC6003002415000070DF7047D6
:1015600010B582B0041C0E4B1B68DB0708D40D4875
:1015700006F0C8FC01220A4B1A600B4812F0C1FBAE
:101580000A4B00930A4B019306480121094AD023D4
:1015900006F02AFC201C022101F05AFB02B010BD0B
:1015A0005C2D0020602D002035C60100045B030087
:1015B0000C6103000361030008B4024B9C4604382D
:1015C00008BC60476115020010B582B0041C0E4BC8
:1015D0001B68DB0708D40D4806F094FC01220A4B77
:1015E0001A600B4812F08DFB0A4B00930A4B0193D3
:1015F00006480121094AB32306F0F6FB201C062108
:1016000001F026FB02B010BD5C2D0020602D0020F3
:1016100035C60100045B0300206103000361030081
:1016200008B4024B9C46043808BC6047C915020048
:1016300070B586B0041C2023C35CFF2B00D0DBE018
:101640008B4B1B68DB0708D48A4806F05BFC012241
:10165000874B1A60884812F054FB884B0093884BE4
:10166000019384480121874A852306F0BDFB0023AE
:101670002022A354A387844B1B68002B50D14C20FD
:1016800008F0CCFF051C01230370437000210022E9
:101690008170C8206860783828816881A981962186
:1016A0008900E981B939FF39298269821038A88215
:1016B000FA204001E882C820C000288308206883FF
:1016C000A9832039E9837B392984053169846F48EE
:1016D000A8846F48E884FA20800028856885A98559
:1016E00024316B5401310020685401316A546B86F7
:1016F00033330121E95403210133E954013101332A
:10170000E9540133EA5401330121E9540133EA5425
:10171000281C3A305F49102212F0CCFB5A4B1D6056
:10172000594B1B685A8E2285261C2C36002B50D113
:101730004C2008F073FF051C012303704370002147
:1017400000228170C8206860783828816881A9816A
:1017500096218900E981B939FF39298269821038D7
:10176000A882FA204001E882C820C000288308200F
:101770006883A9832039E9837B3929840531698409
:101780004248A8844248E884FA2080002885688579
:10179000A98524316B5401310020685401316A5409
:1017A0006B8633330121E95403210133E9540131BC
:1017B0000133E9540133EA5401330121E95401337F
:1017C000EA54281C3A303349102212F073FB2E4B96
:1017D0001D602D4B19683A31301C102212F06AFB43
:1017E000CB223F23E25400220133E25405F000FAF9
:1017F000A087201C07F09EF8201C01F0F9FF902321
:10180000E0500020211C2131FFF7A8FE002803D062
:101810009821214AFFF748F8FFF732FC208DFCF7AA
:101820001FF8201C002101F0A1F8114B1B68DB07F9
:1018300008D4104806F066FB01220D4B1A600E48D2
:1018400012F05FFA618DA28F238D0C48009013482F
:10185000019002910392049306480121094AA223B0
:1018600006F0C2FA201C022101F0F2F906B070BDA8
:101870005C2D0020602D002035C60100045B0300B4
:1018800038610300036103001C2B0020B80B00002B
:1018900010270000E8600300F860030060610300A7
:1018A00008B4024B9C46083808BC60473116020059
:1018B000F0B585B0051C0E1C141CD27B237C1B02CA
:1018C00013431AB2002A02DB01339BB200E03A4B09
:1018D0003A4AB352627BA37B1B0213433AD0384B84
:1018E0001B68DB0708D4374806F00CFB0122344B99
:1018F0001A60354812F005FA8E27E95F627BA37BF8
:101900001B0213431B041B14CB18304A0092304AAD
:101910000192029103932B4801212E4A3623FF3373
:1019200006F062FA627BA37B1B0213431B041B14A9
:10193000EA5BD318EB53A1218900627BA37B1B02D6
:1019400013431B041B14725AD3187352281C002112
:1019500001F00CF86079A27912020243E3791B04CA
:1019600013431A1C237A1B0613439022AA5893424E
:101970001FD1607AA27A12020243E37A1B04134356
:101980001A1C237B1B06134313D09022AB50607AA2
:10199000A27A12020243E37A1B0413431A1C237B2C
:1019A0001B061343A0229200B350281C002100F014
:1019B000DDFF05B0F0BDC046FFFF0000860200005D
:1019C0005C2D0020602D002035C601004457030027
:1019D000EC5803000361030070B582B0061C0C1CB8
:1019E000164B1B68DB0708D4154806F08BFA01225A
:1019F000124B1A60134812F084F9134B0093134BE7
:101A000001930F480121124ABE2306F0EDF900258B
:101A10000BE02B1C10339B00F3185868002803D0F0
:101A20000368DB6A211C98470135092DF1DD301C64
:101A3000022101F00DF902B070BDC0465C2D0020FE
:101A4000602D002035C60100045B0300986103008F
:101A50000361030070B582B0041C05F019F9261D5E
:101A6000301CFDF7A5FCDB4B23601A1C283262609A
:101A70004833A3600023A3736364A364E364236512
:101A80006365A365E36523666366A366D24A146053
:101A90000022A38190216350012002396052023953
:101AA000625410396352213162540539635004394C
:101AB0006350A36700200021206761678021635085
:101AC000143901206054013162548422A35004323D
:101AD000A3500C2008F0A2FD051C1521002206F0E1
:101AE0002DFB25610C2008F099FD051C1621002214
:101AF00006F024FB65610C2008F090FD051C172101
:101B0000002206F01BFBA561206906F0EBFA606974
:101B100006F0E8FAA06906F0E5FA201C05F0BEF828
:101B20009C230122E254AD4B1B68002B07D13420CB
:101B300008F074FD051C08F0CFFAA84B1D60A74BF8
:101B40001868A74D2860311CFDF72AFC3C2008F0DE
:101B500065FD061C2B68A34A009201220192A2494E
:101B6000221C03F061FB66643C2008F057FD061C54
:101B70002B689E4A0092032201921E21221CFEF72E
:101B800081FDE664502008F049FD061C2B68984A48
:101B90000092042201920A21221C06F0ABFE266567
:101BA0009220400008F03AFD061C2B68914A0092F2
:101BB000052201921421221CFEF7B6FD6665302035
:101BC00008F02CFD061C2B688B4A0092062201921D
:101BD0003221221C06F044FEA665884B1B68002BB0
:101BE00050D14C2008F01AFD051C012303704370EE
:101BF000002100228170C8206860783828816881BF
:101C0000A98196218900E981B939FF392982698240
:101C10001038A882FA204001E882C820C00028833A
:101C200008206883A9832039E9837B392984053119
:101C300069847348A8847348E884FA208000288562
:101C40006885A98524316B54013100206854013125
:101C50006A546B8633330121E95403210133E9547B
:101C600001310133E9540133EA5401330121E954CC
:101C70000133EA54281C3A306349102212F01AF951
:101C80005E4B1D605D4B1A683723D35C002B04D07C
:101C9000012001215D4A04F0CFFB142008F0BEFCB6
:101CA000051C5B49B4225200242307F06DF9E5615D
:101CB000524B1B68002B50D14C2008F0AFFC051C88
:101CC000012303704370002100228170C8206860E6
:101CD000783828816881A98196218900E981B939FC
:101CE000FF39298269821038A882FA204001E882EF
:101CF000C820C000288308206883A9832039E9838D
:101D00007B392984053169843D48A8843D48E884AD
:101D1000FA20800028856885A98524316B5401311B
:101D20000020685401316A546B8633330121E95431
:101D300003210133E95401310133E9540133EA54F9
:101D400001330121E9540133EA54281C3A302E4969
:101D5000102212F0AFF8294B1D60284B1B681B782E
:101D6000002B1DD02B4B1B68DB0708D42A4806F03C
:101D7000C9F80122274B1A60284811F0C2FF284BEE
:101D80000093284B019324480121274A742306F02D
:101D90002BF8FF222023E254201CFFF749FC16E019
:101DA000224B1B68DB0708D4214806F029FF0122DB
:101DB0001E4B1A601F4811F0A4FF211C2031231C68
:101DC000083300931A482222002306F091FE201CBB
