:020000021000EC
:10C000000080002011C401009901020035DB01000D
:10C010000000000000000000000000000000000020
:10C020000000000000000000000000009901020074
:10C0300000000000000000009901020099010200C8
:10C040009901020099010200990102009901020080
:10C05000990102000000000099010200990102000C
:10C060009901020099010200990102009901020060
:10C070009901020099010200990102009901020050
:10C0800099010200E569020099010200990102008C
:10C0900065690200F96402005997020099010200E3
:10C0A0009901020099010200000000000000000058
:10C0B0000000000000000000000000000000000080
:10C0C00000000000FFFFFFFFFFFFFFFFFFFFFFFF7C
:10C0D000FFFFFFFFFFFFFFFFFFFFFFFFFFFFFFFF70
:10C0E000FFFFFFFFFFFFFFFFFFFFFFFFFFFFFFFF60
:10C0F000FFFFFFFFFFFFFFFFFFFFFFFFFFFFFFFF50
:10C10000FFFFFFFFFFFFFFFFFFFFFFFFFFFFFFFF3F
:10C40000FFFFFFFFFFFFFFFFFFFFFFFFFEFFFFFF3D
:10C4100080B500AF0EF082FA0B4A0C4B9A4207D05F
:10C420000B4B0949094A081C111C1A1C17F05AFF2A
:10C43000084B094A101C00211A1C17F070FF0EF05F
:10C4400055FA00F049F8FEE70028002080A9030013
:0CC4500058010000240A000058290020B8
:10C46000F8B5C046F8BC08BC9E467047F8B5C04653
:10C47000F8BC08BC9E46704710B5064C2378002BCC
:10C4800007D1054B002B02D0044800E000BF012378
:10C49000237010BD582900200000000080A903006F
:10C4A00008B5084B002B03D00748084900E000BF3F
:10C4B00007480368002B00D108BD064B002BFBD0BA
:10C4C0009847F9E70000000080A903005C290020DC
:10C4D0005829002000000000164B002B00D1144BFF
:10C4E0009D46402292029A1A924600218B460F46A0
:10C4F0001348144A121A17F012FF0F4B002B00D0EA
:10C5000098470E4B002B00D09847002000210400D4
:10C510000D000D48002802D00C4817F00AFE17F055
:10C520008DFE2000290005F085F817F011FEC046A9
:10C530000000080000800020000000000000000053
:10C54000582900207C330020334103000000000004
:10C5500088DF704782DF704781DF70477CDF70477C
:10C560007ADF704778DF704776DF704774DF704797
:10C5700073DF704772DF704700B583B00F4B1B68E5
:10C58000DB0708D40E480CF0B5FA01220B4B1A60F9
:10C590000C4817F0CEFD0C4B00930C4B0193084850
:10C5A00001210B4AF2230CF017FA0022094B1A80E2
:10C5B0000232094B1A7003B000BDC0462C2B00207C
:10C5C000302B002035C60100685903006C59030068
:10C5D0004B590300F42900207429002070B582B063
:10C5E000061C031C114A04C344685D680DE0206802
:10C5F0000C380F4B984207D083685A1E8260002B7C
:10C6000002DC01A90EF0A2FB0434A542EFD1706850
:10C61000002801D00EF016FA301C03F06DFE301C1D
:10C620000EF010FA301C02B070BDC04698880300AE
:10C630003032002030B583B0104B114A1A605C686C
:10C640009D680DE020680C380E4B984207D0836837
:10C650005A1E8260002B02DC01A90EF077FB043425
:10C66000A542EFD1054B5868002801D00EF0EAF939
:10C67000024803F041FE03B030BDC046302B00201D
:10C68000988803003032002010B5074B1B68002B40
:10C6900007D134200EF0DAF9041C0DF035FF024BFF
:10C6A0001C60014B186810BDD42F002063DF704759
:10C6B00097DF704792DF7047A9DF7047A2DF7047AE
:10C6C000A0DF704770B58CB0051C04AE002333802A
:10C6D00012226A44138053809380D3801381538144
:10C6E0009381D38107AC227C0123134323741A4B1B
:10C6F00019682C31201C102217F0F4FD237C012234
:10C700001340202213432374281C311C221CFFF7E2
:10C7100023FF041E04D07C21FF31104A04F09EFE4A
:10C720000F4B1B68DB0708D40E480CF0E3F901221D
:10C730000B4B1A600C4817F0FCFC0C4B00930C4B95
:10C74000019302950394074801210A4A7E23FF338F
:10C750000CF042F90CB070BDD02F002084590300BA
:10C760002C2B0020302B002035C60100A4590300DB
:10C77000A85903008F59030008B5074B1B68DB0756
:10C7800008D406480CF0B6F90122034B1A6004489D
:10C7900017F0CFFC014808BD2C2B0020302B0020C7
:10C7A00035C60100014B98617047C04674290020CE
:10C7B000014BD8617047C04674290020014B1860B6
:10C7C0007047C046F8290020014B18627047C046E8
:10C7D00074290020F0B58DB00388103B9AB2092A65
:10C7E00000D9B3E0041C93005C4AD3589F46002153
:10C7F00024235B4AD154037D012B01D1FFF7BCFEFA
:10C80000584B1B68DB0708D457480CF073F901221A
:10C81000544B1A60554817F08CFC554B0093554B00
:10C82000019351480121544A9D230CF0D5F8534BF4
:10C830001B68201C984701208DE04A4B1B68DB07D2
:10C8400008D449480CF056F90122464B1A60474873
:10C8500017F06FFCA379464A0092494A019202936D
:10C8600041480121444AA7230CF0B6F83C4B9B6990
:10C87000201C984701206EE08379032B68D1384B48
:10C880000021242299541B6A9847002063E007ADD9
:10C890002A7C012313432B743A4B19682C31281C32
:10C8A000102217F01FFD2B7C01221340202213437E
:10C8B0002B74A088291C00220023FFF74BFE041EC6
:10C8C00003D0CE21304A04F0C9FD264B1B68DB079C
:10C8D00008D425480CF00EF90122224B1A60234897
:10C8E00017F027FC294B0093294B019302941E4813
:10C8F0000121214AD0230CF06FF800202BE0C779EA
:10C9000083791E091B071D0F164B1B68DB0708D414
:10C9100015480CF0EFF80122124B1A60134817F07B
:10C9200008FC1A4B00931B4B019302970396049546
:10C930000D480121104ADC230CF04EF8084BDB694E
:10C94000002B07D0201C9847002004E0002002E0C4
:10C95000002000E000200DB0F0BDC04608590300E3
:10C96000742900202C2B0020302B002035C601001C
:10C97000387E0300DC5903008F590300F82900209A
:10C98000F0590300D02F002084590300A45903005C
:10C99000085A0300405A030008B51321FFF7E4FDCD
:10C9A000002803D08321024A04F058FD08BDC04688
:10C9B0008459030030B589B02423E64AD35C002BA8
:10C9C00000D0A5E2041C01212433D15404AA137819
:10C9D000022083438B431370DF4B1B68002B50D125
:10C9E0004A300EF033F8051C012303704370002118
:10C9F00000228170C8206860783828816881A98108
:10CA000096218900E981B939FF3929826982103874
:10CA1000A882FA204001E882C820C00028830820AC
:10CA20006883A9832039E9837B39298405316984A6
:10CA3000CA48A884CA48E884FA2080002885688506
:10CA4000A98524316B5401310020685401316A54A6
:10CA50006B8633330121E95403210133E954013159
:10CA60000133E9540133EA5401330121E95401331C
:10CA7000EA54281C3A30BB49102217F033FCB64B5D
:10CA80001D60B54B1B68998B04AA1181002B50D1F6
:10CA90004C200DF0DBFF051C0123037043700021C7
:10CAA00000228170C8206860783828816881A98157
:10CAB00096218900E981B939FF39298269821038C4
:10CAC000A882FA204001E882C820C00028830820FC
:10CAD0006883A9832039E9837B39298405316984F6
:10CAE0009E48A8849E48E884FA20800028856885AE
:10CAF000A98524316B5401310020685401316A54F6
:10CB00006B8633330121E95403210133E9540131A8
:10CB10000133E9540133EA5401330121E95401336B
:10CB2000EA54281C3A308F49102217F0DBFB8A4B5D
:10CB30001D60894B1B68D98B04AA5181002B50D1F1
:10CB40004C200DF083FF051C01230370437000216E
:10CB500000228170C8206860783828816881A981A6
:10CB600096218900E981B939FF3929826982103813
:10CB7000A882FA204001E882C820C000288308204B
:10CB80006883A9832039E9837B3929840531698445
:10CB90007248A8847248E884FA2080002885688555
:10CBA000A98524316B5401310020685401316A5445
:10CBB0006B8633330121E95403210133E9540131F8
:10CBC0000133E9540133EA5401330121E9540133BB
:10CBD000EA54281C3A306349102217F083FB5E4B5D
:10CBE0001D605D4B1B68198C04AA9181002B50D1EC
:10CBF0004C200DF02BFF051C012303704370002116
:10CC000000228170C8206860783828816881A981F5
:10CC100096218900E981B939FF3929826982103862
:10CC2000A882FA204001E882C820C000288308209A
:10CC30006883A9832039E9837B3929840531698494
:10CC40004648A8844648E884FA20800028856885FC
:10CC5000A98524316B5401310020685401316A5494
:10CC60006B8633330121E95403210133E954013147
:10CC70000133E9540133EA5401330121E95401330A
:10CC8000EA54281C3A303749102217F02BFB324B5C
:10CC90001D60314B1B68198902AA1180002B50D1ED
:10CCA0004C200DF0D3FE051C0123037043700021BE
:10CCB00000228170C8206860783828816881A98145
:10CCC00096218900E981B939FF39298269821038B2
:10CCD000A882FA204001E882C820C00028830820EA
:10CCE0006883A9832039E9837B39298405316984E4
:10CCF0001A48A8841A48E884FA20800028856885A4
:10CD0000A98524316B5401310020685401316A54E3
:10CD10006B8633330121E95403210133E954013196
:10CD20000133E9540133EA5401330121E954013359
:10CD3000EA54281C3A300B49102217F0D3FA064B5C
:10CD40001D60054B1B68598902AA5180002B5CD1DC
:10CD50000AE0C04674290020D82D0020B80B00003E
:10CD600010270000305903004C200DF06FFE051C09
:10CD7000012303704370002100228170C820686085
:10CD8000783828816881A98196218900E981B9399B
:10CD9000FF39298269821038A882FA204001E8828E
:10CDA000C820C000288308206883A9832039E9832C
:10CDB0007B392984053169845748A8845748E88419
:10CDC000FA20800028856885A98524316B540131BB
:10CDD0000020685401316A546B8633330121E954D1
:10CDE00003210133E95401310133E9540133EA5499
:10CDF00001330121E9540133EA54281C3A304849EF
:10CE0000102217F06FFA474B1D60464B1B6899893B
:10CE100002AA9180002B50D14C200DF017FE051C6A
:10CE2000012303704370002100228170C8206860D4
:10CE3000783828816881A98196218900E981B939EA
:10CE4000FF39298269821038A882FA204001E882DD
:10CE5000C820C000288308206883A9832039E9837B
:10CE60007B392984053169842B48A8842B48E884C0
:10CE7000FA20800028856885A98524316B5401310A
:10CE80000020685401316A546B8633330121E95420
:10CE900003210133E95401310133E9540133EA54E8
:10CEA00001330121E9540133EA54281C3A301C496A
:10CEB000102217F017FA1B4B1D601A4B1B6802AAB1
:10CEC000DB89D380201C04A9FFF742FB002803D094
:10CED0007221154A04F0C2FA0022144B1A80144B36
:10CEE0001B68DB0708D413480BF004FE0122104B2B
:10CEF0001A60114817F01DF9104B0093104B019365
:10CF00000C4801210F4A77230BF066FD012000E059
:10CF1000002009B030BDC046B80B0000102700004B
:10CF200030590300D82D002084590300402E0020E2
:10CF30002C2B0020302B002035C601007C5A03002A
:10CF4000845A03008F59030010B52A4B1B68002B2D
:10CF50004CD14C200DF07AFD041C0122027042706D
:10CF600000238370C8214160783901814181838128
:10CF700096218900C181B939FF390182418240205F
:10CF8000A082FA204001E082C820C000208308204F
:10CF90006083A1832039E1837B3921840531618459
:10CFA0001548A0841548E084FA208000208560851B
:10CFB000A185243162540131635401316354628686
:10CFC0000431625403200131605401300131605456
:10CFD00001316354013162543832A354201C3A3079
:10CFE0000749293A17F07EF9024B1C60014B18687B
:10CFF00010BDC046D82D0020B80B0000102700003F
:10D000003059030010B584B001A803780F22934370
:10D01000012213430F221340102213430370C1490E
:10D020000622FFF79BFA002803D04521BE4A04F0F0
:10D0300015FA8020FFF796FA002803D04921BA4A52
:10D0400004F00CFA002302930393B84B1B68002BE7
:10D0500050D14C200DF0FAFC041C012303704370E6
:10D06000002100228170C8206060783820816081B2
:10D07000A18196218900E181B939FF39218261823C
:10D080001038A082FA204001E082C820C00020832E
:10D0900008206083A1832039E1837B392184053115
:10D0A0006184A348A084A348E084FA2080002085FE
:10D0B0006085A18524316354013100206054013121
:10D0C0006254638633330121E15403210133E15477
:10D0D00001310133E1540133E25401330121E154C0
:10D0E0000133E254201C3A309349102217F0FAF829
:10D0F0008E4B1C608D4B1B68198902AA1180002B76
:10D1000050D14C200DF0A2FC041C0123037043708D
:10D11000002100228170C820606078382081608101
:10D12000A18196218900E181B939FF39218261828B
:10D130001038A082FA204001E082C820C00020837D
:10D1400008206083A1832039E1837B392184053164
:10D1500061847748A0847748E084FA2080002085A5
:10D160006085A18524316354013100206054013170
:10D170006254638633330121E15403210133E154C6
:10D1800001310133E1540133E25401330121E1540F
:10D190000133E254201C3A306749102217F0A2F8FC
:10D1A000624B1C60614B1B68598902AA5180002B9D
:10D1B00050D14C200DF04AFC041C01230370437035
:10D1C000002100228170C820606078382081608151
:10D1D000A18196218900E181B939FF3921826182DB
:10D1E0001038A082FA204001E082C820C0002083CD
:10D1F00008206083A1832039E1837B3921840531B4
:10D2000061844B48A0844B48E084FA20800020854C
:10D210006085A185243163540131002060540131BF
:10D220006254638633330121E15403210133E15415
:10D2300001310133E1540133E25401330121E1545E
:10D240000133E254201C3A303B49102217F04AF8CF
:10D25000364B1C60354B1B68998902AA9180002BC4
:10D2600050D14C200DF0F2FB041C012303704370DD
:10D27000002100228170C8206060783820816081A0
:10D28000A18196218900E181B939FF39218261822A
:10D290001038A082FA204001E082C820C00020831C
:10D2A00008206083A1832039E1837B392184053103
:10D2B00061841F48A0841F48E084FA2080002085F4
:10D2C0006085A1852431635401310020605401310F
:10D2D0006254638633330121E15403210133E15465
:10D2E00001310133E1540133E25401330121E154AE
:10D2F0000133E254201C3A300F49102216F0F2FF9D
:10D300000A4B1C60094B1B6802A8DB89C380FFF72E
:10D3100027F9002803D05321034A04F09FF804B0F2
:10D3200010BDC0468C5A030084590300D82D00203C
:10D33000B80B0000102700003059030070B582B010
:10D34000061C046845680DE020680C380A4B9842BA
:10D3500007D083685A1E8260002B02DC01A90DF001
:10D36000F5FC0434A542EFD13068002801D00DF05F
:10D3700069FB301C02B070BD3032002070B582B045
:10D38000061C031C0F4A04C344685D680DE0206856
:10D390000C380D4B984207D083685A1E8260002BD0
:10D3A00002DC01A90DF0D2FC0434A542EFD1706873
:10D3B000002801D00DF046FB301C02F09DFF301C10
:10D3C00002B070BD988803003032002030B583B0C1
:10D3D000041C934B1B88984200D11EE1002B20D0E7
:10D3E000FFF7C4F8051E03D0CF218E4A04F036F8AB
:10D3F000002D16D18C4B1B68DB0708D48B480BF033
:10D4000079FB0122884B1A60894816F092FE894BFD
:10D410000093894B019385480121884AD1230BF061
:10D42000DBFA8023DB009C425AD1854B1B68002B22
:10D4300050D14C200DF00AFB051C012303704370F2
:10D44000002100228170C8206860783828816881B6
:10D45000A98196218900E981B939FF392982698238
:10D460001038A882FA204001E882C820C000288332
:10D4700008206883A9832039E9837B392984053111
:10D4800069847048A8847048E884FA208000288560
:10D490006885A98524316B5401310020685401311D
:10D4A0006A546B8633330121E95403210133E95473
:10D4B00001310133E9540133EA5401330121E954C4
:10D4C0000133EA54281C3A306049102216F00AFF52
:10D4D0005B4B1D605A4B1B681A8A5D4B1A825DE0DC
:10D4E000F0231B019C4259D1554B1B68002B50D196
:10D4F0004C200DF0ABFA051C012303704370002192
:10D5000000228170C8206860783828816881A981EC
:10D5100096218900E981B939FF3929826982103859
:10D52000A882FA204001E882C820C0002883082091
:10D530006883A9832039E9837B392984053169848B
:10D540004048A8844048E884FA20800028856885FF
:10D55000A98524316B5401310020685401316A548B
:10D560006B8633330121E95403210133E95401313E
:10D570000133E9540133EA5401330121E954013301
:10D58000EA54281C3A303149102216F0ABFE2C4BDD
:10D590001D602B4B1B68DA8A2D4B1A8225232C4ADF
:10D5A000D35C002B13D0101C2623D15C2830002222
:10D5B0000023FEF7DFFF051E03D0DD21194A03F02B
:10D5C0004DFF002D03D100212523214AD154002CE9
:10D5D00021D01F48FEF7CCFF051E03D0E621114ADB
:10D5E00003F03CFF002D16D10F4B1B68DB0708D45E
:10D5F0000E480BF07FFA01220B4B1A600C4816F014
:10D6000098FD0C4B0093134B0193084801210B4AE2
:10D61000E8230BF0E1F9024B1C8003B030BDC0469B
:10D62000F4290020405903002C2B0020302B00202F
:10D6300035C6010068590300945A03004B59030092
:10D64000D82D0020B80B000010270000305903002F
:10D6500074290020A85A0300F0B589B0041C0D1CE1
:10D6600003AA117801230B405E2149420B4313703A
:10D670000D236B4400228831415C19702B21415CE1
:10D6800059700F236B441A705A702B680C3B1A6840
:10D69000002A03D0142A03D9012302E0012300E069
:10D6A0000023002B06D0FFF767F802210BF0A0FA49
:10D6B00000201BE0D2B203AE7271122068442968C8
:10D6C00016F010FEFEF7E0FF012700970021321C44
:10D6D00014230CF031FE29687279201C05F0F2FD4C
:10D6E000FFF74AF800210BF083FA381C09B0F0BDAF
:10D6F00038B5041C0D48A3880333026D1371A2884A
:10D70000051C54355C30216816F0ECFDA388083305
:10D71000DBB2002000212A1CFEF72CFF002803D0DA
:10D72000A821034A03F09AFE38BDC04674290020A0
:10D7300040590300F0B583B0071C0D1C002A1FD010
:10D740003A4B1B78002B1BD0394B1B68DB0708D4E6
:10D7500038480BF0CFF90122354B1A60364816F0E5
:10D76000E8FC364B0093364B019332480121354A91
:10D7700080230BF031F900222C4B1A70012624E093
:10D78000002A1FD1294B1B78022B1DD0284B1B6868
:10D79000DB0708D427480BF0ADF90122244B1A60AF
:10D7A000254816F0C6FC254B0093274B01932148D2
:10D7B0000121244A86230BF00FF902221B4B1A7019
:10D7C000012602E0002600E00026184CAB880B334F
:10D7D0002622A354E06F8772AB880733C3700B30E7
:10D7E000AA88296816F07EFDA9880B31C9B2201CD1
:10D7F000283000220023FEF7BDFE041E03D0932133
:10D80000124A03F02BFE002E07D0114B1D8800207A
:10D81000FFF7DCFD281CFFF7D9FD002C03D0012108
:10D820002523024AD15403B0F0BDC046742900201C
:10D830002C2B0020302B002035C601006859030036
:10D84000BC5A03004B590300E45A0300405903003B
:10D85000F42900200322014B1A707047742900201C
:10D8600038B5041CAC4B002225215A5401315A54BE
:10D87000243919705A601A72DA60FF31FF31198247
:10D880005A82A64B1B68002B50D14C200DF0DEF8BD
:10D89000051C012303704370002100228170C82001
:10D8A0006860783828816881A98196218900E9819A
:10D8B000B939FF39298269821038A882FA204001DB
:10D8C000E882C820C000288308206883A983203903
:10D8D000E9837B392984053169849148A88491487A
:10D8E000E884FA20800028856885A98524316B5456
:10D8F00001310020685401316A546B8633330121B1
:10D90000E95403210133E95401310133E95401336E
:10D91000EA5401330121E9540133EA54281C3A3016
:10D920008149102216F0DEFC7C4B1D607B4B196890
:10D9300079482E23CB5C5A425A41037D0125AB43E3
:10D9400013430375002950D14C200DF07FF8051CBE
:10D95000012303704370002100228170C820686099
:10D96000783828816881A98196218900E981B939AF
:10D97000FF39298269821038A882FA204001E882A2
:10D98000C820C000288308206883A9832039E98340
:10D990007B392984053169846148A8846148E88419
:10D9A000FA20800028856885A98524316B540131CF
:10D9B0000020685401316A546B8633330121E954E5
:10D9C00003210133E95401310133E9540133EA54AD
:10D9D00001330121E9540133EA54281C3A305249F9
:10D9E000102216F07FFC4D4B1D604C4B19684A48C5
:10D9F0002F23CB5C5A4253415A00037D0225AB438F
:10DA000013430375002950D14C200DF01FF8051C5D
:10DA1000012303704370002100228170C8206860D8
:10DA2000783828816881A98196218900E981B939EE
:10DA3000FF39298269821038A882FA204001E882E1
:10DA4000C820C000288308206883A9832039E9837F
:10DA50007B392984053169843148A8843148E884B8
:10DA6000FA20800028856885A98524316B5401310E
:10DA70000020685401316A546B8633330121E95424
:10DA800003210133E95401310133E9540133EA54EC
:10DA900001330121E9540133EA54281C3A30224968
:10DAA000102216F01FFC1D4B1D601C4B19681A4BF1
:10DAB00030228A5C51424A4191001A7D04208243FF
:10DAC0000A431A750021194A11801A1C2832DA6794
:10DAD0000238283158542739517005319170F93185
:10DAE0001171181C2D304D25057002254570F02050
:10DAF000D0711C861A1C54321A65ED3854241855FE
:10DB0000092353703D3393700733D37010715171F3
:10DB1000074BD38038BDC04674290020D82D002083
:10DB2000B80B00001027000030590300F429002032
:10DB30004D020000FEE7C04610B52F4B1B68002BBE
:10DB400050D14C200CF082FF041C01230370437061
:10DB5000002100228170C8206060783820816081B7
:10DB6000A18196218900E181B939FF392182618241
:10DB70001038A082FA204001E082C820C000208333
:10DB800008206083A1832039E1837B39218405311A
:10DB900061841A48A0841A48E084FA208000208515
:10DBA0006085A18524316354013100206054013126
:10DBB0006254638633330121E15403210133E1547C
:10DBC00001310133E1540133E25401330121E154C5
:10DBD0000133E254201C3A300A49102216F082FB2D
:10DBE000054B1C60044B1B68074A11687C2258686F
:10DBF0008B5AC3188B5210BDD82D0020B80B0000D3
:10DC000010270000105B0300182B002010B5002324
:10DC1000A022920083500122427400220E494352F6
:10DC2000012149429D24A400015302720024447240
:10DC3000A224A4000351094C0353094C0255C93CCA
:10DC40000255C38183810274064BC152E23BC05826
:10DC500009F0CEFE10BDC046720200007E02000038
:10DC6000710200008602000010B5041C044B036022
:10DC700002F042FB201C0CF0E5FE201C10BDC0464B
:10DC8000C8830300F0B587B0041C8D79144B1B6862
:10DC9000DB0708D413480AF02DFF0122104B1A604D
:10DCA000114816F046FA114BE75AA67A281C07F0DD
:10DCB000D1FB0F4B00930F4B0193029703960495F2
:10DCC0000590084801210C4AAA230AF085FE00228B
:10DCD000A1239B00E252201CFFF798FF07B0F0BD84
:10DCE0002C2B0020302B002035C6010072020000D2
:10DCF0003C5B0300485B03002B5B030030B58BB03B
:10DD0000041C437A002B19D04D4B1B68DB0708D449
:10DD10004C480AF0EFFE0122494B1A604A4816F0BF
:10DD200008FAA37A494A0092494A01920293454867
:10DD30000121484A7A230AF04FFE7EE0404B1B68DF
:10DD4000DB0708D43F480AF0D5FE01223C4B1A609D
:10DD50003D4816F0EEF93D4B00933F4B0193394897
:10DD600001213C4A7F230AF037FE06A90B780122E5
:10DD70001340282213430B70236819226A442A2176
:10DD8000595C11702B21595C51701B226A4431215E
:10DD90001170443151701D226A441B31595C11705D
:10DDA000191C90314878507088789070C978D1707B
:10DDB00021226A448E21595C11708E335B78537036
:10DDC00004F084F823236B441870000A58706068CC
:10DDD000211C04F021FE25236B4480B21870000A38
:10DDE0005870174B1B68DB0708D416480AF082FEF0
:10DDF0000122134B1A60144816F09BF9A17A06AD64
:10DE0000079B1B0A2A7A12061A43089B1B021B1443
:10DE10000E48009011480190029103920493094822
:10DE200001210C4A92230AF0D7FD01230093606878
:10DE3000211C2A1C0E330CF009FB0BB030BDC04670
:10DE40002C2B0020302B002035C60100745B030012
:10DE5000805B03002B5B0300AC5B0300DC5B030017
:10DE600030B585B0041C0D1C84230268D258A2234F
:10DE70009B00C250C37A002B19D11D4B1B68DB07D6
:10DE800008D41C480AF036FE0122194B1A601A48C1
:10DE900016F04FF9A37A194A0092194A0192029397
:10DEA00014480121174A6C230AF096FD18E0104B24
:10DEB0001B68DB0708D40F480AF01CFE01220C4B3C
:10DEC0001A600D4816F035F9A37A0C4A00920E4AF2
:10DED00001920293074801210A4A6E230AF07CFD51
:10DEE000AA889D239B00E2520123237205B030BD16
:10DEF0002C2B0020302B002035C601007C5A03005B
:10DF0000105C03002B5B0300345C030008B59D2309
:10DF10009B00C05AFEF740FD08BDC046F0B547461D
:10DF200080B48EB0051C0E1C4C680F898B78984607
:10DF3000DF4B1B68DB0708D4DE480AF0DBFD01225B
:10DF4000DB4B1A60DC4816F0F4F823785B08DB4AF8
:10DF50000092DB4A019202930397D6480121D94AE5
:10DF6000C0230AF039FDE27823791B0213432A68A3
:10DF7000518D8B4242D0D4498B423FD0D3498B4202
:10DF800003D13E21525C022A38D0D04A93420DD1AF
:10DF90006868002101F070F9011E2FD043460093FC
:10DFA0006868221C3B1C0CF051FA27E02378012200
:10DFB00093432E2B0BD1E27B237C1B0213431AB21B
:10DFC000002A04DB01339BB2E3731B0A23746278DB
:10DFD000A3781B021343BE4A9A1892B2BD498A42E3
:10DFE00004D8013B9BB263701B0AA37043460093A5
:10DFF0006868291C221C3B1C0CF09EF92378012226
:10E000009343282B00D098E10F2F00D07CE1E27AD7
:10E01000237B1B021343B04AAB52A54B1B68DB07A3
:10E0200008D4A4480AF066FD0122A14B1A60A24858
:10E0300016F07FF8A94B0093A94B01939D4801214D
:10E04000A04A81235B000AF0C7FC994B1B68DB07E1
:10E0500008D498480AF04EFD0122954B1A60964864
:10E0600016F067F86378A67836021E436179A379C3
:10E070001B020B431A1CE0790004031C1343207A93
:10E0800000061843637AA17A0902194309040914A6
:10E09000627BA37B1B0213431B041B148F4A009259
:10E0A000904A0192029603900491059381480121C0
:10E0B000844A0623FF330AF08FFC6079A2791202AA
:10E0C0000243E3791B0413431A1C237A1B061343F0
:10E0D00029689022885883421DD1754B1B68DB0745
:10E0E00008D474480AF006FD0122714B1A60724888
:10E0F00016F01FF8AB7A794A00927B4A019202939C
:10E100006C4801216F4A85235B000AF065FC281CDE
:10E11000FFF7FCFEDFE3667AA27A120232438E2614
:10E12000895B17B20EB2B74202DB21D183421FD204
:10E130005F4B1B68DB0708D45E480AF0DBFC01225A
:10E140005B4B1A605C4815F0F4FF644B0093674B1F
:10E150000193584801215B4A1223FF330AF03CFC2B
:10E16000EB7A002B00D0B6E3281CFFF7C7FDB2E323
:10E170004F4B1B68DB0708D44E480AF0BBFC01225A
:10E180004B4B1A604C4815F0D4FF544B0093584B3E
:10E190000193484801214B4A8D235B000AF01CFC87
:10E1A0006868291C01F09EFB6278A3781B02134368
:10E1B000504AAB52627BA37B1B0213431AB2002A64
:10E1C00002DB01339BB200E04B4B4C4AAB52384B65
:10E1D0001B68DB0708D437480AF08CFC0122344B5B
:10E1E0001A60354815F0A5FF8E232A68D25EA12358
:10E1F0009B00EB5E01333949009141490191029244
:10E2000003932C4801212F4A2623FF330AF0E4FB15
:10E2100009AC2378012213402A22134323702A6871
:10E2200025236B442A21515C19702B21525C5A70B2
:10E2300027236B442F4AAA5C1A702E4AAA185278D8
:10E240005A706868291C04F0E7FB29236B4480B2EC
:10E250001870000A58700023E371154B1B68DB0728
:10E2600008D414480AF046FC0122114B1A601248E7
:10E2700015F05FFF09ACE378227912021A430A9B7A
:10E280001B021B14154900911E4901910292039330
:10E29000084801210B4A3823FF330AF09DFB012374
:10E2A00000936868291C221C07330CF0CFF812E396
:10E2B0002C2B0020302B002035C601007C5A030097
:10E2C000585C03002B5B03003175000019790000D6
:10E2D000CF8AFFFF167900007E020000745B030006
:10E2E000AC5B0300785C0300B85C0300005D0300D6
:10E2F0000C5D030072020000FFFF000086020000B8
:10E300001C5D0300405D0300E04B1B68DB0708D485
:10E31000DF480AF0EFFB0122DC4B1A60DD4815F004
:10E3200008FFDD4B0093DD4B0193D9480121DC4A06
:10E33000A2235B000AF050FBCDE22A2B00D0E4E1DF
:10E34000082F00D0C8E1D14B1B68DB0708D4D048A8
:10E350000AF0D0FB0122CD4B1A60CE4815F0E9FE41
:10E360006378A178090219436279A3791B021343E8
:10E370001B041B14CB4A0092CB4A019202910393D7
:10E38000C3480121C64A5023FF330AF025FB296800
:10E390008E228B5A01338B526279A3791B0213436D
:10E3A0001AB2002A02DB01339BB200E0BF4BC04A25
:10E3B000AB52B64B1B68DB0708D4B5480AF09AFB92
:10E3C0000122B24B1A60B34815F0B3FE8E232A68BF
:10E3D000D35E5A1EB3490091B6490191029203934C
:10E3E000AB480121AE4AAB235B000AF0F5FA2B687B
:10E3F0009020A02292001958A9506178A2781202A8
:10E400000A43AD496A5212316A5A01326A520126F0
:10E410006E7209AC227801210A402E210A43227033
:10E4200025226A442A21595C11702B21595C5170B4
:10E4300027226A4400211170517031226A4401215F
:10E4400011700021517029226A44195C11709033B7
:10E450005978517099789170DB78D3702D236B4483
:10E4600000221A705A709A70DA70884B1B68334217
:10E4700008D187480AF03EFB0122844B1A60854888
:10E4800015F057FE874B00938C4B01938048012178
:10E49000834A6A23FF330AF09FFA002421E0686868
:10E4A000231C08339B00C3185968A94218D04B7A23
:10E4B000002B15D004F0B0FA33236B4480B21870EF
:10E4C000000A5870231C08339B006A689446634412
:10E4D000596801230093686809AA10330BF0B6FF4E
:10E4E0000134774B1B68002B50D14C200CF0AEFA56
:10E4F000061C012303704370002100228170C82094
:10E500007060783830817081B18196218900F18105
:10E51000B939FF39318271821038B082FA20400156
:10E52000F082C820C000308308207083B183203976
:10E53000F1837B393184053171846248B08462484B
:10E54000F084FA20800030857085B18524317354C1
:10E55000013100207054013172547386333301212C
:10E56000F15403210133F15401310133F1540133EA
:10E57000F25401330121F1540133F254301C3A308A
:10E580005249102215F0AEFE4D4B1E604C4B1A68DE
:10E590003623D35C9C4282DB06A90B780122134010
:10E5A0002C2213430B702B6819226A442A21595CD0
:10E5B00011702B21595C51701B226A443E49695CE1
:10E5C00011703D496918497851701D226A449021A3
:10E5D000595C1170191C903148785070887890708F
:10E5E000C978D17021226A448E21595C11708E3312
:10E5F0005B785370254B1B68DB0708D424480AF06E
:10E6000079FA0122214B1A60224815F092FD2A4B1B
:10E61000E95A2B6890229A588E201B5E2148009060
:10E620002B480190029103920493194801211C4A3E
:10E63000BE235B000AF0D0F9012400946868291C0D
:10E6400006AA0B230BF002FF2868002104F07AFFD2
:10E650000E4B1B68234208D10D480AF04BFA0122E9
:10E660000A4B1A600B4815F064FD0E4B0093194BD2
:10E670000193074801210A4AC2235B000AF0ACF962
:10E680002868291C03F082FF25E1C0462C2B0020BE
:10E69000302B002035C601007C5A0300645D030066
:10E6A0002B5B0300745B0300845D0300FFFF00002D
:10E6B000860200001C5D030072020000A85D0300DA
:10E6C000D82D0020B80B000010270000105B0300BD
:10E6D000E45D0300185E0300814B1B68DB0708D470
:10E6E00080480AF007FA01227D4B1A607E4815F037
:10E6F00020FD7E4B00937E4B01937A4801217D4A99
:10E70000C6235B000AF068F9E5E02C2B00D0C5E0D9
:10E710000B2F00D0A9E0724B1B68DB0708D47148AF
:10E720000AF0E8F901226E4B1A606F4815F001FDFE
:10E730006378A67836021E436079A3791B020343EF
:10E740001A1CE17909040B1C1343217A09061943A9
:10E75000627AA37A1B0213431B041B14664A0092BD
:10E76000664A01920296039104935E480121614A30
:10E77000CC235B000AF030F9594B1B68DB0708D447
:10E7800058480AF0B7F90122554B1A60564815F05F
:10E79000D0FC8E262B68995F627AA37A1B02134302
:10E7A0001B041B14544A0092554A01920291039390
:10E7B0004C4801214F4ACD235B000AF00DF96079E6
:10E7C000A27912020243E3791B0413431A1C237A31
:10E7D0001B061343A0229200AB50A1218900627A4C
:10E7E000A37A1B0213431B041B146A5AD318013B60
:10E7F0006B526079A27912020243E3791B0413433E
:10E800001A1C237A1B061343902229688B502A680E
:10E81000617AA37A1B020B431B041B14915BCB1878
:10E82000013B935301246C722868002104F08AFE96
:10E830002B4B1B68234208D12A480AF05BF90122BE
:10E84000274B1A60284815F074FC2B4B00932D4B76
:10E85000019324480121274AAA23FF330AF0BCF878
:10E860002868291C03F092FE35E01D4B1B68DB076E
:10E8700008D41C480AF03EF90122194B1A601A48C4
:10E8800015F057FC194B00931F4B019315480121BC
:10E89000184AB223FF330AF09FF81CE0E27823798C
:10E8A0001B0213432A68518D8B420ED0002B0CD0D3
:10E8B0001649591889B21648814206D915498B4222
:10E8C00009D13E23D35C022B05D16B6858680368DD
:10E8D0005B69311C98470EB004BC9046F0BDC04641
:10E8E0002C2B0020302B002035C601007C5A030061
:10E8F000445E03002B5B0300745B0300585E03005F
:10E900001C5D0300185E03008C5E0300D08AFFFFCD
:10E91000E70300001979000070B5041C0E1C151CDB
:10E92000037A002B0BD1FFF771F9064BE018311C6D
:10E93000072215F0D7FC044BE552012000E000202F
:10E9400070BDC046760200007E02000038B5041C8F
:10E9500004A800786260A1722360E0721C200CF0B1
:10E9600075F8051C211C1231C822520009F042F929
:10E97000D2235B00E5500022E033E252044BE25424
:10E98000C93BE254201CFFF741F9201C38BDC046AA
:10E990007102000010B5041C024B036001F0ACFCD6
:10E9A000201C10BDC883030010B582B00023009363
:10E9B0000020012102221B4B08F0B0FB002804D0EC
:10E9C0004621FF31184A02F049FD1848183001214C
:10E9D000174A08F079FB002804D0A4214900124A04
:10E9E00002F03CFD114B9C69FEF7AEFA4368590CEE
:10E9F000D803FA225200002380185941FA229200CB
:10EA0000002315F041F9011C201C002208F02CFB0A
:10EA1000002804D04C21FF31034A02F01FFD02B050
:10EA200010BDC046FC290020A05E0300FC2A002087
:10EA300039DB010070B5051C0C1C002614E00C4BE2
:10EA40001A68002A0FD0331C10339B00D318586863
:10EA5000002808D0036ADB78002B04D003685B6AC7
:10EA6000291C221C98470136092EE8DD70BDC046DE
:10EA7000182B002030B585B0041C05882B4B1B6873
:10EA8000DB0708D42A480AF035F80122274B1A6020
:10EA9000284815F04EFB281C06F050FD264B00932D
:10EAA000264B01930290039521480121244A8B2390
:10EAB0005B0009F091FF201CFDF78CFE201C03F089
:10EAC00049F8201C03F086F9002513E01D4B1A6855
:10EAD000002A0ED02B1C10339B00D3185868002836
:10EAE00007D0036ADB78002B03D003689B6A211CE4
:10EAF00098470135092DE9DD0C4B1B68DB0708D46D
:10EB00000B4809F0F7FF0122084B1A60094815F07D
:10EB100010FB094B00930C4B019305480121084A57
:10EB20002623FF3309F058FF05B030BD2C2B002001
:10EB3000302B002035C60100B05E0300B85E030034
:10EB4000A65E0300182B0020CC5E030038B5041C21
:10EB50000C4B1B68002B07D134200BF077FF051CF2
:10EB60000BF0D2FC074B1D60064B1B6800221A609D
:10EB70009A7B01329A73586803681B69211C984775
:10EB800038BDC046D42F0020F0B5A3B0041CAA4B5A
:10EB90001B68002B07D134200BF058FF051C0BF02D
:10EBA000B3FCA54B1D60A44B1868A1880BF048FB73
:10EBB000051E00D13DE12023E35C012293433C2B61
:10EBC00044D19E4E3068783008F044FA37682523E7
:10EBD000E15C0133E35C1B020B431A1C2723E65C58
:10EBE0003604331C13432822A65C36061E43292311
:10EBF000E05C0133E25C120202430133E35C1B047C
:10EC000013431A1C2C23E35C1B0613433E677B67EC
:10EC10008B4B1B68DB0708D48A4809F06BFF012285
:10EC2000874B1A60884815F084FA844B1B689A6FEA
:10EC30001B6F0393854B0093854B01930292814890
:10EC40000121844AA823FF3309F0C6FE824BE85C09
:10EC5000002865D12023E35CDB0761D4784B1B6877
:10EC6000DB0708D4774809F045FF0122744B1A608E
:10EC7000754815F05EFA261C2036E28B7148311C6F
:10EC800009AB06F08BFA6E4B1B68DB0708D46D48A6
:10EC900009F030FF01226A4B1A606B4815F049FAFF
:10ECA0002023E35C5808DB07DB0FDBB2E18B227A21
:10ECB0006A4F00976A4F019702900393049105925F
:10ECC00060480121634AD8235B0009F085FE5C4B54
:10ECD0001B68DB0708D45B4809F00CFF0122584B86
:10ECE0001A60594815F025FA5C4B00935D4B01936F
:10ECF00009AB029353480121564AB223FF3309F06E
:10ED00006BFE06A9A3880B804E60E38B0B81237AF0
:10ED1000023B5A1E93418B70281CFFF7FFF888E0D6
:10ED2000002829D12023E35CDB0725D5281CAA3045
:10ED3000FF30211C2031E28B15F0D4FA464AE18BDA
:10ED4000AB5CCB18AB543E4B1B68DB0708D43D488B
:10ED500009F0D0FE01223A4B1A603B4815F0E9F960
:10ED6000414B0093414B019336480121394AE52339
:10ED70005B0009F031FE5CE000285AD02818AA3068
:10ED8000FF30E28B013A211C213115F0ABFA202330
:10ED9000E35CDB071ED5304AE18BAB5CCB18013B53
:10EDA000AB54274B1B68DB0708D4264809F0A2FEAA
:10EDB0000122234B1A60244815F0BBF92A4B00931B
:10EDC0002B4B01931F480121224ADA23FF3309F01C
:10EDD00003FE2EE01A4B1B68DB0708D4194809F024
:10EDE00089FE0122164B1A60174815F0A2F91E4B36
:10EDF0000093204B019313480121164ADE23FF3371
:10EE000009F0EAFD09A9A3880B802B1CAA33FF3364
:10EE10004B60114AA85CE38BC318013B0B81237A3A
:10EE2000023B581E83418B700023AB54281CFFF714
:10EE300075F823B0F0BDC046D42F0020D02F00209D
:10EE40002C2B0020302B002035C60100345F03003E
:10EE50003C5F03001B5F0300710200007C5A03004B
:10EE6000645F03006C6E03009C5F0300A05F0300FF
:10EE7000C05F0300E05F030070B5061C184B1B6801
:10EE8000002B07D134200BF0E1FD041C0BF03CFB00
:10EE9000134B1C60124B1C68B188201C0BF0D0F97E
:10EEA000051E1BD0C37A002B03D1637B0133637330
:10EEB00002E0A37B0133A373D2235B00EA5863898A
:10EEC000128B9B1A638100232B72606803689B6816
:10EED000311C9847281C311CFEF7D4FE70BDC0467B
:10EEE000D42F002070B5051C0E1C114B1B68002B85
:10EEF00007D134200BF0AAFD041C0BF005FB0C4BD2
:10EF00001C600B4B1C68201C291C0BF099F9002875
:10EF10000CD0084BC652237A002B02D0FEF7EEFE2F
:10EF200004E060680368DB680021984770BDC04654
:10EF3000D42F00207E02000030B585B0041C214B88
:10EF40001B68002B07D134200BF080FD051C0BF053
:10EF5000DBFA1C4B1D601B4B1D68A188281C0BF0A5
:10EF60006FF9041C184B1B68DB0708D4174809F01D
:10EF7000C1FD0122144B1A60154815F0DAF8A37A86
:10EF8000144A0092144A0192029310480121134A34
:10EF9000A4235B0009F020FDE37A002B05D12B7A36
:10EFA000002B0DD1013363720AE0012B08D12B7ABB
:10EFB000002B03D0201CFEF7A1FE01E001236372A9
:10EFC00005B030BDD42F00202C2B0020302B00208A
:10EFD00035C601009C5F0300006003001B5F030057
:10EFE000F0B583B0051C964B1B68DB0708D4954829
:10EFF00009F080FD0122924B1A60934815F099F8B0
:10F00000924B0093924B01938E480121914A062323
:10F01000FF3309F0E1FC904B1A686C23D35C062B9C
:10F0200017D1874B1B68DB0708D4864809F062FDBF
:10F030000122834B1A60844815F07BF8874B0093BC
:10F04000874B01937F480121824A86235B0009F0A8
:10F05000C3FC844B1B68002B07D134200BF0F6FC5B
:10F06000041C0BF051FA7F4B1C607E4B1C682B7DFF
:10F07000012B6DD12669637B013B6373301C291C16
:10F08000FEF7EEFE60680368DB68291C9847764B44
:10F090001B68002B50D14C200BF0D8FC051C012321
:10F0A00003704370002100228170C82068607838A6
:10F0B00028816881A98196218900E981B939FF39C0
:10F0C000298269821038A882FA204001E882C8208B
:10F0D000C000288308206883A9832039E9837B390D
:10F0E0002984053169846148A8846148E884FA204C
:10F0F000800028856885A98524316B540131002062
:10F10000685401316A546B8633330121E954032179
:10F110000133E95401310133E9540133EA54013335
:10F120000121E9540133EA54281C3A305149102294
:10F1300015F0D8F84C4B1D604B4B1A683923D35C43
:10F14000002B79D1237A002B76D10133737273E0CF
:10F15000022B71D12768381C291CFEF781FE6068DC
:10F160000368DB68291C98473F4B1B68002B50D174
:10F170004C200BF06BFC061C012303704370002134
:10F1800000228170C8207060783830817081B18130
:10F1900096218900F181B939FF39318271821038A5
:10F1A000B082FA204001F082C820C00030830820DD
:10F1B0007083B1832039F1837B39318405317184C7
:10F1C0002A48B0842A48F084FA208000308570856F
:10F1D000B1852431735401310020705401317254CF
:10F1E000738633330121F15403210133F15401318A
:10F1F0000133F1540133F25401330121F15401334D
:10F20000F254301C3A301B49102215F06BF8164BA3
:10F210001E60154B1A683923D35C002B03D0A888D5
:10F22000FDF750FA08E0237A002B03D0381CFEF7D4
:10F2300065FD01E001237B720023236003B0F0BD74
:10F240002C2B0020302B002035C601009C5F0300D2
:10F25000246003001B5F0300D02F00208080030088
:10F2600038600300D42F0020D82D0020B80B0000F8
:10F2700010270000E05E0300F0B583B0051C0F1CF2
:10F28000002600230193404B00931EE0002F06D080
:10F29000331C08339B00EB185B68BB4214D0331C53
:10F2A00008339B00EB185B685A7A002A0CD0374A67
:10F2B0009A5A11B2002907DB69460020095E10B294
:10F2C000814201DD019300920136314B1B68002B16
:10F2D00050D14C200BF0BAFB041C01230370437087
:10F2E000002100228170C820606078382081608110
:10F2F000A18196218900E181B939FF39218261829A
:10F300001038A082FA204001E082C820C00020838B
:10F3100008206083A1832039E1837B392184053172
:10F3200061841C48A0841C48E084FA208000208569
:10F330006085A1852431635401310020605401317E
:10F340006254638633330121E15403210133E154D4
:10F3500001310133E1540133E25401330121E1541D
:10F360000133E254201C3A300C49102214F0BAFF49
:10F37000074B1C60064B1A683623D35C9E4285DB24
:10F38000019803B0F0BDC046FF7F00008602000078
:10F39000D82D0020B80B000010270000E05E03000D
:10F3A00041607047014B183303607047E05E030013
:10F3B000014B183303607047E05E0300F0B55F4611
:10F3C0005646C0B48DB0051C012464420026671C5B
:10F3D000BE4B1B68002B50D14C200BF037FB041C9C
:10F3E000012303704370002100228170C8206060F7
:10F3F000783820816081A18196218900E181B93925
:10F40000FF39218261821038A082FA204001E08217
:10F41000C820C000208308206083A1832039E183B5
:10F420007B39218405316184A948A084A948E084FE
:10F43000FA20800020856085A18524316354013144
:10F440000020605401316254638633330121E1545A
:10F4500003210133E15401310133E1540133E2541A
:10F4600001330121E1540133E254201C3A309A491E
:10F47000102214F037FF954B1C60944B1A6836230A
:10F48000D15C381C14F0F4FB0C1E00D10026231CA8
:10F4900008339B00EB185B681A7A002A00D10AE156
:10F4A000D222520099580B8B002B00D103E10AAFF6
:10F4B000381C08F0DDFA0A990B785A1E9341DBB22A
:10F4C0004A1C9246BA88013A97B2142F04D84A7857
:10F4D000012082434A7000E00123002B00D1B9E0F3
:10F4E000231C08339B00EB185B685A7C002A00D170
:10F4F000E1E0142F34D9D42252009B5C002B2AD097
:10F500009A44FB1A142B02DD01239C4601E00023E0
:10F510009C46012053461B780122934362461A43BE
:10F52000131C524613704B785B085A0053461B78E5
:10F53000034013435246137003420AD1231C08337D
:10F540009B00EB185A68D4235B00D35CFB1A9FB274
:10F5500006E0142704E04A78012313434B70142774
:10F5600053461B78012293433C2B47D109A807F04F
:10F5700071FD5A4B1B68996F099808AA07F064FD42
:10F58000574B1B68DB0708D4564809F0B3FA012231
:10F59000534B1A60544814F0CCFD504B9B461B68EB
:10F5A0001A6F9B6F0393514B0093514B019302923F
:10F5B000099B0493089B05934A4801214D4A9123D6
:10F5C0009B0009F009FA5B461B68089A0692002224
:10F5D00007921A6F5B6F0698079912184B415146B4
:10F5E0004A71100A8871100CC871120E0A724B729F
:10F5F0001A0A8A721A0CCA721B0E0B73231C083368
:10F600009B00EB185B689D229200985A3A4A995ADF
:10F610000123009352463B1C02F01AFC071E03D044
:10F620003649374A01F01AFF002F07D1231C08334F
:10F630009B00EB185A68537C013B5374231C08331E
:10F640009B00EB185A68D2235B00D3581B8B002B0E
:10F650002ED130E02B7B002B2DD0231C08339B00B8
:10F66000EB185B689D229200985A234A995A00230E
:10F67000009352463B1C02F0EBFB00280CD12B7B85
:10F68000013B2B73231C08339B00EB185A68D223D1
:10F690005B00D05808F0B4F9231C08339B00EB182A
:10F6A0005A68D2235B00D3581B8B002B02D102E097
:10F6B000012600E00126032C00D088E6002E00D0B1
:10F6C00085E60DB00CBC92469B46F0BDD82D0020BF
:10F6D000B80B000010270000E05E0300D02F0020D0
:10F6E0002C2B0020302B002035C60100345F030096
:10F6F0005C6003001B5F03007E0200004F020000FD
:10F70000105F0300F0B5474680B48AB0041C6A4B12
:10F710001B68002B07D134200BF098F9051C0AF068
:10F72000F3FE654B1D60644B1D682388012B29D1B6
:10F73000624B1B68DB0708D4614809F0DBF9012242
:10F740005E4B1A605F4814F0F4FC237A5E4A009224
:10F750005E4A019202935A4801215D4A9F239B0011
:10F7600009F03AF92A7B237AD3182B73227A6B8912
:10F770009B1A9BB26B81002B00D198E0281CFFF7ED
:10F780001DFE94E0372B00D091E0E388002B1DD0C4
:10F790004A4B1B68DB0708D4494809F0ABF9012242
:10F7A000464B1A60474814F0C4FCE488201C05F05E
:10F7B0006DFD454B0093474B0193029403904048E5
:10F7C0000121434A444B09F007F970E03B4B1B68A9
:10F7D000DB0708D43A4809F08DF90122374B1A604B
:10F7E000384814F0A6FC384B00933C4B0193344846
:10F7F0000121374AA6239B0009F0EEF8A188281CB6
:10F800000AF01EFD071CD2235B00C15806A808F0B1
:10F810002FF9D4235B00FE5C0136069B9C466644B0
:10F82000264B1B68DB0708D4254809F063F9012241
:10F83000224B1A60234814F07CFC33785A08904617
:10F84000DB07DB0FDCB2D2235B00F95808A808F015
:10F850000FF91D4B0093224B0193434602930394EF
:10F86000089B0493059616480121194AA7239B007B
:10F8700009F0B2F83378DB070BD40022D4235B0005
:10F88000FA54043BF85808F0BBF86B89013B6B81D4
:10F8900004E0D4225200BB5C1333BB547B7C0133A5
:10F8A0007B746B89002B02D0281CFFF787FD0AB000
:10F8B00004BC9046F0BDC046D42F00202C2B002065
:10F8C000302B002035C601007C5A030090600300F5
:10F8D0001B5F0300AC6003008D020000C8600300E2
:10F8E000DC600300F8B5061C0D1C00240CE0231C92
:10F8F00008339B00F3185868A84204D0037A002B01
:10F9000001D0FEF703FB01342E4B1B68002B50D1B6
:10F910004C200BF09BF8071C01230370437000215F
:10F9200000228170C8207860783838817881B98168
:10F9300096218900F981B939FF39398279821038E5
:10F94000B882FA204001F882C820C000388308201D
:10F950007883B9832039F9837B39398405317984F7
:10F960001948B8841948F884FA20800038857885C9
:10F97000B98524317B5401310020785401317A5407
:10F980007B8633330121F95403210133F9540131CA
:10F990000133F9540133FA5401330121F95401338D
:10F9A000FA54381C3A300A49102214F09BFC054BDB
:10F9B0001F60044B1A683523D35C01339C4296DBED
:10F9C000F8BDC046D82D0020B80B0000102700005D
:10F9D000E05E0300038AC38400222923C25401325B
:10F9E000013BC2547047C0467047C0463ADF70477B
:10F9F00010B582B0012809D10C4B994206D10C4BAD
:10FA00000C4A1A6000225A609A60DA6000280BD112
:10FA1000064B994208D1064C201DFDF78FFC20684B
:10FA20000C3801A90BF0CEF802B010BDFFFF0000AA
:10FA30001C2B00203C32002010B5041C064B1A1C65
:10FA4000083202604C33436008F04EFC201C0AF080
:10FA5000F9FF201C10BDC0460861030008B4024B2A
:10FA60009C46043808BC604739FA010010B5041CF4
:10FA7000044B1A1C083202604C33436008F034FC1B
:10FA8000201C10BD0861030008B4024B9C460438DA
:10FA900008BC60476DFA010070B58CB0051C1C1CD9
:10FAA00010AB1B880093231C01F082FA23780122FB
:10FAB00093436A2B4DD16279A3791B0213432A8A9F
:10FAC000934246D1237A002B43D13B4B1B69DB0782
:10FAD00009D4394E301C143009F00CF8012333617D
:10FAE000364814F026FB637A354A0092354A019273
:10FAF0000293314814300121334A812308F06CFF0E
:10FB000007AA137801210B406C210B431370A968DD
:10FB10001D236B442A20085C18702B20095C597047
:10FB20006078A1781F236B441870597021236B44AF
:10FB3000297C1970697C597000231372637A53729F
:10FB40006F2393726E3B0093E86800210A330AF03A
:10FB50008DFC2378012293436C2B2BD16279A379FE
:10FB60001B0213432A8A934224D1237A002B21D1EA
:10FB7000114B1B69DB0709D40F4D281C143008F00A
:10FB8000B9FF01232B610D4814F0D3FA6278A378F2
:10FB90001B021343617AA27A094800900B48019036
:10FBA000029303910492044814300121064A9E23D3
:10FBB00008F012FF0CB070BD1C2B002035C60100F0
:10FBC000946103009C61030082610300C061030033
:10FBD000F0B5474680B490B0061C0C1C171C10688A
:10FBE00053681B1A072B08D90430311C14310AF052
:10FBF0009AFF002803D1012502E0002500E000253E
:10FC0000002D50D0201C56490AF08DFF00284AD103
:10FC10003B68186814F095FA041C87B2514B1B69B5
:10FC2000DB070BD44F4B9846181C143008F062FFCA
:10FC30000123424613614C4814F07BFA2404240C3F
:10FC40004A4B00934A4B01930294464814300121D9
:10FC5000484A5A2308F0C0FE05AA137801210B4038
:10FC60006A210B431370B16815236B442A20085C8A
:10FC700018702B20095C597017236B441F703F0AC2
:10FC80005F7019236B44317C1970717C59700023AB
:10FC900013727B335372F0687A3B0093002109336F
:10FCA0000AF0E4FB56E00AA8211C0BF082F87B68FE
:10FCB0003A689C1AA41000230B930C930D93002C0C
:10FCC00009D02D4B9C4201D90AF0DCFEA0000AF0BD
:10FCD000BDFE051C00E000250B950C95A4002C1919
:10FCE0000D943C687F6807E0002D03D0281C211C80
:10FCF0000BF05FF804340435BC42F5D10C95301C90
:10FD00000AA90BAA07F08CFF051C0B9C0C9E0DE0AA
:10FD100020680C38194B984207D083685A1E8260BD
:10FD2000002B02DC0FA90BF011F80434A642EFD12E
:10FD30000B98002801D00AF085FE0A980C380F4B6A
:10FD4000984207D083685A1E8260002B02DC0EA9FD
:10FD50000AF0FCFF281C10B004BC9046F0BDC04661
:10FD6000E86103001C2B002035C6010094610300EC
:10FD7000F061030082610300FFFFFF3F303200208B
:10FD800008B4024B9C46043808BC6047D1FB010014
:10FD900008B508F089F908BDF0B54F464646C0B42D
:10FDA00085B0051C0C1C01230193436802689E1A50
:10FDB000B6100396012E01D201AA00E003AA126830
:10FDC000B6182A689B1A9B109E4204D3294B9E4268
:10FDD00002D91E1C00E0274E002E09D0254B9E4262
:10FDE00001D90AF04FFEB0000AF030FE814601E072
:10FDF000002399466B682A689B1A9B109B004B4412
:10FE0000002B03D022681A601B4B23602B686868A4
:10FE10004A4607E0002A03D01968116016491960A4
:10FE2000043304328342F5D1131D98462F686C6861
:10FE30000DE038680C38114B984207D083685A1E81
:10FE40008260002B02DC02A90AF080FF0437BC426A
:10FE5000EFD12868002801D00AF0F4FD4B462B6052
:10FE600043466B60B6004E44AE6005B00CBC904695
:10FE70009946F0BDFFFFFF3F3C32002030320020AA
:10FE800008B543688268934209D0002B03D00A6802
:10FE90001A60044B0B6043680433436001E0FFF7D2
:10FEA0007BFF08BD3C320020F0B5474680B4071CFC
:10FEB0008846141C1A4B1B78002B2ED007F08EF8A6
:10FEC000051C061E7F2E0DD1002CF7D0154B1B787C
:10FED000002B01D007F014F8013C3B1900221A70E6
:10FEE000E4B2EBE70F4B1B78002B01D007F008F8CA
:10FEF0000D2E03D0444501D2F92C0AD93C19002318
:10FF00002370084B1B78002B07D0074807F020F818
:10FF100003E03D550134E4B2D0E704BC9046F0BDA7
:10FF2000D62D0020182800203085030008B50A4B84
:10FF30001B68002B0BD08269C169101C98470028F0
:10FF400008D0B3214900054A01F088FA02E083692C
:10FF5000C069984708BDC0460030002024620300F5
:10FF60008021490380235B00014AD1507047C0467D
:10FF700000E100E08021890280235B00014AD1502A
:10FF80007047C04600E100E010B5204B1C68221C01
:10FF9000211C09E0824209D0D3009B189B001C4918
:10FFA0000968CB18111C1A6A531CF3D1531C2BD0AF
:10FFB000914212D1E3001C19A400154B1B681C19B7
:10FFC000236A12480360013307D10123114883607B
:10FFD000002411480460114803700D4B1868D300C9
:10FFE0009A18920082185468CB0059188900411859
:10FFF000136A0B625A1C07D0DA00D3189B00C3188F
:020000022000DC
:100000005A68944664445C6010BDC046E42F0020EA
:10001000E02F002000100140F42F0020FE2F0020D0
:10002000F0B51D4B1E68C3001B189B00F7181B4B37
:100030001D686B1C02D1194B18602BE07968EB002E
:100040005B199B00F3185A68914209D8511A5960FC
:100050003D62124B18601DE0091B151C1A6A00E076
:100060002A1C531C06D0D3009B189B00F3185C6815
:100070008C42F1D3531C06D0D3009B189B00F3187D
:100080005C68641A5C6079603A62EB005D19AD00EF
:1000900075192862F0BDC046E02F0020E42F002033
:1000A000802189028023184AD150184B80225202A5
:1000B000D22189005A5040395A5001225A602F20CB
:1000C0000138C046C046C046C046C046C046C046CD
:1000D000C046C046C046C046C046F1D19A60002323
:1000E0000B4A13602F200138C046C046C046C046A8
:1000F000C046C046C046C046C046C046C046C046D0
:10010000F1D1044A1370704700E100E00010014093
:10011000F42F0020FC2F0020114B80225202D1210D
:1001200089005A5040395A500E4A80218902C02015
:1001300040001150116001221A605238FF38013816
:10014000C046C046C046C046C046C046C046C0467F
:10015000C046C046C046C046F1D1034B1A70704736
:100160000010014000E100E0FC2F0020A123DB0093
:10017000064AD0500649C42292008858054B0340D5
:10018000C020000203438B507047C046001001405E
:1001900000E100E0FF00FFFFFEE7C04630B587B09A
:1001A000041C0AA820C8008800950190201C08F0B3
:1001B000E7F91B4B1A1C083222604C336360194B61
:1001C0001B69DB0709D4174D281C143008F092FC7A
:1001D00001232B61144813F0ACFF03A8134904AAB0
:1001E0000AF018FE0F48143003A908F0AFFB03987B
:1001F0000C380F4B984207D083685A1E8260002B40
:1002000002DC05A90AF0A2FD231C26332362042385
:10021000A384201C07F0BAFF201C07B030BDC046E5
:10022000086103001C2B002035C601009461030007
:100230003032002010B58CB002A814F079F8099C77
:10024000069BE418FCF798FA044B009301940021F4
:10025000034A392308F01EFC0CB010BD886203006D
:100260007A62030010B584B00024112022E003A8B4
:100270000421FFF7BBFB0134114B9C421AD9114BEF
:100280001B69DB0709D40F4C201C143008F032FC2A
:10029000012323610C4813F04CFF0C4B00930C4BD3
:1002A00001930848143001210A4A2C2308F094FBDA
:1002B000052002E00028DAD1039804B010BDC04642
:1002C000A08601001C2B002035C6010080800300A1
:1002D000946203007A62030008B500200149FFF729
:1002E00087FB08BDFFFF000008B501200149FFF7AB
:1002F0007FFB08BDFFFF0000014B603303607047C8
:1003000008610300014B603303607047086103001C
:1003100008B5011C024BD86B07F02CFB08BDC0468A
:100320009C2C0020F0B557464E464546E0B48AB0B6
:10033000884B1B78002B00D106E18749002240231F
:10034000CA544031002006F015FE002800D1FBE021
:10035000824B1B78002B07D0814806F0F9FD402323
:100360007D4AD05C06F0CCFD7B484030FA2101226A
:10037000FFF79AFD7B4C23680C3B1A68201C002178
:1003800000230AF02DFC6668A568341C0DE0206887
:100390000C38754B984207D083685A1E8260002B38
:1003A00002DC08A90AF0D2FC0434A542EFD16D4B5F
:1003B0009E60694840306D4914F08CF9041E24D0C9
:1003C00014F06CF9021C6748211C0AF083FC1CE045
:1003D0000020664914F07EF9041E16D06846211CE0
:1003E00001AA0AF017FD5F4804306946FFF748FD8F
:1003F00000980C385C4B984207D083685A1E826084
:10040000002B02DC06A90AF0A1FC002CE0D1554823
:1004100057490AF088FB00286FD11B3006F070FDA9
:10042000544806F095FD1B2006F06AFD524806F080
:100430008FFD89E0484BD86BB1B207F08DFA80464A
:1004400003689B689946474C02A8211C0AF0B1FC3E
:10045000A36864681C1BA4100023039304930593F2
:10046000002C09D0454B9C4201D90AF00BFBA0009F
:100470000AF0ECFA051C00E0002503950495A400A1
:100480002C190594374B5C689F6807E0002D03D05A
:10049000281C211C0AF08DFC04340435BC42F5D123
:1004A0000495404602A903AAC8478244039C049DC0
:1004B0000DE020680C382C4B984207D083685A1EF8
:1004C0008260002B02DC09A90AF040FC0434A5423A
:1004D000EFD10398002801D00AF0B4FA02980C3842
:1004E000214B984207D083685A1E8260002B02DCA1
:1004F00007A90AF02BFC013602E0002600239A46E9
:10050000154BD86B07F026FA864293D35346002B3F
:100510001AD1124B1B78002B03D0194806F018FD96
:1005200012E0104B1B69DB0709D40E4C201C143061
:1005300008F0E0FA01232361124813F0FAFD09489C
:100540001430012108F054FB0AB01CBC90469946B7
:10055000A246F0BDD62D00209C2C0020182800209B
:10056000E06203001C2B002030320020048C0300CA
:10057000EC620300F0620300F4620300FFFFFF3F40
:10058000F862030035C60100038AC38401232922CF
:100590008354013A83540023436383638385044B6C
:1005A0004385032306328354013283547047C04687
:1005B00030750000F0B587B0061C171C68460AF0BD
:1005C000F8FB7B683A689C1AA410002301930293FD
:1005D0000393002C09D0264B9C4201D90AF052FA11
:1005E000A0000AF033FA051C00E0002501950295F1
:1005F000A4002C1903943C687F6807E0002D03D009
:10060000281C211C0AF0D5FB04340435BC42F5D16A
:100610000295301C694601AA07F002FB051C019CEB
:10062000029E0DE020680C38124B984207D0836878
:100630005A1E8260002B02DC05A90AF087FB0434F5
:10064000A642EFD10198002801D00AF0FBF90098EA
:100650000C38084B984207D083685A1E8260002BE2
:1006600002DC04A90AF072FB281C07B0F0BDC046EA
:10067000FFFFFF3F3032002008B4024B9C46043895
:1006800008BC6047B5050200F0B54F464646C0B409
:1006900093B0061C0C1C171C081CCE490AF043FA28
:1006A000002821D1CC4B1B68DB0708D4CB4808F0CD
:1006B00021FA0122C84B1A60C94813F03AFD308A6A
:1006C000B368598D80235B051A6E5B6EC54C009430
:1006D0000190029103920493C0480021C24A7523FD
:1006E00008F0D8F9012526E2201CC0490AF01BFABF
:1006F00000280CD069E02B1C08339B00F26894465C
:1007000063445968301C05F007FC013500E0002502
:10071000B74B1B68002B50D14C200AF097F9041CF2
:10072000012303704370002100228170C8206060A3
:10073000783820816081A18196218900E181B939D1
:10074000FF39218261821038A082FA204001E082C4
:10075000C820C000208308206083A1832039E18362
:100760007B39218405316184A248A084A248E084B9
:10077000FA20800020856085A185243163540131F1
:100780000020605401316254638633330121E15407
:1007900003210133E15401310133E1540133E254C7
:1007A00001330121E1540133E254201C3A309349D2
:1007B000102213F097FD8E4B1C608D4B1A68362368
:1007C000D35C9D4297DB0125B5E1201C8C490AF0E2
:1007D000AAF900280CD069E0231C08339B00F268BA
:1007E000944663445968301C05F058FB013400E01E
:1007F00000247F4B1B68002B50D14C200AF026F9B7
:10080000051C012303704370002100228170C82061
:100810006860783828816881A98196218900E981FA
:10082000B939FF39298269821038A882FA2040013B
:10083000E882C820C000288308206883A983203963
:10084000E9837B392984053169846A48A8846A4828
:10085000E884FA20800028856885A98524316B54B6
:1008600001310020685401316A546B863333012111
:10087000E95403210133E95401310133E9540133CF
:10088000EA5401330121E9540133EA54281C3A3077
:100890005A49102213F026FD554B1D60544B1A681F
:1008A0003623D35C9C4297DB012544E138687B68A2
:1008B0001B1A072B09D90430311C14310AF033F903
:1008C000002805D10123984604E00023984601E062
:1008D000002398464346002B00D1D5E0201C49490F
:1008E0000AF021F9002807D0201C47490AF01BF91B
:1008F000002801D0002398464346002B00D1C3E0D6
:10090000386842490AF00FF9002803D1B3685B8DBB
:10091000994605E03B68186813F013FC83B29946CA
:1009200038687B681B1A9B10042B07D108303849A4
:100930000AF0F9F8002803D1454602E0002500E05E
:100940000025002D32D007AB1A78012111406A2210
:100950000A431A70B1681D226A442A20085C10708C
:100960002B20095C51701F226A4449461170494688
:10097000080A507021226A44317C1170717C5170D8
:1009800000221A7238680C3022490AF0CCF800288C
:1009900001D1012300E0002307AA5372F06801236C
:1009A00000930021093309F061FDC4E038687B68D9
:1009B0001B1A9B10032B06D1083017490AF0B3F815
:1009C000002800D14546002D28D0301C494605F0AE
:1009D000F5FCB0E0786303002C2B0020302B0020C6
:1009E00035C60100B46303009A6303001864030072
:1009F000D82D0020B80B0000102700001063030062
:100A000024640300306403004464030080A20300F4
:100A10004C640300486403005064030038687B683A
:100A20001B1A9B10032B06D1083046490AF07BF8AD
:100A3000002800D14546002D26D007AA13780121B1
:100A400019406A230B431370B1681D236B442A209D
:100A5000085C18702B20095C59701F236B444946B1
:100A600019704946080A587021236B44317C19706B
:100A7000717C597002231372F068013B00930021CE
:100A8000093309F0F3FC56E00CA8211C0AF091F997
:100A90007B683A689C1AA41000230D930E930F9361
:100AA000002C09D0284B9C4201D909F0EBFFA00093
:100AB00009F0CCFF051C00E000250D950E95A40063
:100AC0002C190F943C687F6807E0002D03D0281C88
:100AD000211C0AF06EF904340435BC42F5D10E95A0
:100AE000301C0CA90DAA07F09BF8051C0D9C0E9E4E
:100AF0000DE020680C38154B984207D083685A1EC9
:100B00008260002B02DC11A90AF020F90434A6420D
:100B1000EFD10D98002801D009F094FF0C980C3803
:100B20000A4B984207D083685A1E8260002B02DC71
:100B300010A90AF00BF9281C13B00CBC904699467A
:100B4000F0BDC0465C640300FFFFFF3F3032002071
:100B500008B4024B9C46043808BC60478906020072
:100B600010B5041C438D002B0DD0842281688A5857
:100B7000416B521A9A4206D9002105F01BFAA2686D
:100B80008423D3586363A38D002B0ED08422A168E5
:100B90008A58A16B521A9A4207D9201C002105F0ED
:100BA00071FAA2688423D358A36310BD08B507F077
:100BB0007BFA08BD10B5041C07F076FA00238E22DC
:100BC0005200A3500432A35010BDC04610B5041CFF
:100BD000064B1A1C183202605C33436007F084FB3A
:100BE000201C09F02FFF201C10BDC046106303001D
:100BF00008B4024B9C46043808BC6047CD0B020089
:100C000010B5041C044B1A1C183202605C3343609C
:100C100007F06AFB201C10BD1063030008B4024BF0
:100C20009C46043808BC6047010C020008B508293E
:100C300003D18020C00000F0ADFD08BDF0B55746DF
:100C40004E464546E0B48EB02F23C35C002B00D146
:100C5000EBE00B881B2B00D0E7E08C7BE4080A2C30
:100C600018DD0B1C0A7D0F339B791B021343724A5C
:100C7000934211D18B7DF02B10D10B1CCA7D0F3309
:100C80005B7A1B0213436D4A1268128D934207D0A0
:100C9000002306E0002304E0002302E0002300E03C
:100CA0000123002B00D0C0E08B7BDB0700D5BCE02C
:100CB0008B7B5B079E0F4D7B8B7C062B13D1CB7CF4
:100CC000092B10D10B7D442B0DD14B7D552B0AD117
:100CD0008E22520083580133835004326BB28758FE
:100CE000BC466344835000229CE04A235343C3180C
:100CF00030339B78002B00D193E04A235343C31831
:100D000030331B79FF2B03D08F79BB4200D08CE0AE
:100D10004A235343C31838335B79FF2B02D09E42DA
:100D200000D082E04A235343C318383303269E572A
:100D30006BB29E4279DC4A235343C31838330426EE
:100D40009E576BB29E4270DB894680464A235343CE
:100D500043443033DB78012B06D101E0013300E05E
:100D60000023092BFADD3CE0022B3AD1FBF704FD0E
:100D7000334B0093334B01930121334ADE2307F0B9
:100D80002BFE0AAF3B780122924613407732134381
:100D90003B7043469A6829236B4400262A21515C04
:100DA00019702B21525C5A700B1C6B441E705E70C4
:100DB0004B46D91D2D206844062213F093FA534662
:100DC0007B736BB25B4233226A449BB213701B0A83
:100DD00053704346D8680096311C3A1C0E2309F024
:100DE00045FBFBF7C9FC6DB24946CB7998460B7AB7
:100DF0009C464F7A8E7ACA7A0B7B1149009113492F
:100E0000019102950394414604916146059106972C
:100E100007960892099301210B4AEF2307F0DCFDA6
:100E200003E00132002A00DC5FE70EB01CBC9046F4
:100E30009946A246F0BDC0464D020000D02F0020CA
:100E400090640300986403007A640300A0640300C4
:100E500070B58AB0041C2C4B1B68DB0708D42B48E8
:100E600007F048FE0122284B1A60294813F061F967
:100E70008E256D0090235B00E3580393254B009370
:100E8000254B01936359029320480121234A722381
:100E900007F0A2FD6359002B33D005AD2B7801225A
:100EA00013406A2213432B70A26815236B442A2136
:100EB000515C002619702B21525C5A7017236B4429
:100EC00000221A705A7019236B44227C1A70627CBB
:100ED0005A702E72211C1D31FF311D2068440422DE
:100EE00013F000FA211C2131FF3121206844042233
:100EF00013F0F8F9E068009600212A1C112309F08C
:100F0000B5FA0AB070BDC0462C2B0020302B002053
:100F100035C60100EC640300F46403007A64030046
:100F200010B5038E002B13D0842281688A58816A01
:100F3000521A9A420CD9041CFFF78AFF00238E2212
:100F40005200A3500432A350A2688433D358A36242
:100F500010BDC04610B53223C35C002B09D1041C60
:100F600032304A2213F0BEF901223223E25401202A
:100F700000E0002010BDC04600B595B0038A83850F
:100F800000222F23C2542E3B2E328354074A02865E
:100F900001A94B70FE338B70CB72633B4B72383BB5
:100FA0008B72FFF7D7FF15B000BDC046204E000082
:100FB000F0B56D4CA5441A780124A243662A04D0EA
:100FC000642A02D0682A00D0C9E05D799C792402A5
:100FD0002C43058AAC4200D0C1E01C1C061C642ACC
:100FE00000D07EE00D89083DADB2604B1B68DB0789
:100FF00008D45F4807F07EFD01225C4B1A605D4813
:1010000013F097F8271C08375948391C2A1C06ABDF
:1010100004F0C4F8554B1B68DB0708D4544807F0AC
:1010200069FD0122514B1A60524813F082F8524B6D
:101030000093524B0193029506AB03934C48012158
:101040004F4AED2307F0C8FCA17A336A9A7891429F
:1010500026D1B28CAA4223D11C88444B1B68DB07E3
:1010600008D4434807F046FD0122404B1A6041482E
:1010700013F05FF8404B0093424B01933C48012131
:101080003F4AF72307F0A8FCB28C306A391C13F0F2
:1010900029F9336A1C8033689B68301C98475EE0EE
:1010A000324B1B68DB0708D4314807F023FD0122CF
:1010B0002E4B1A602F4813F03CF8B18CA27A336A99
:1010C0009B78314800903148019002950391049239
:1010D0000593274801212A4A81235B0007F07CFC05
:1010E0003DE0662A3BD0682A39D135E02A1C10320F
:1010F0009200B3689C4662445368002B2AD0198A38
:101100006279A3791B021343994223D1174B1B68C1
:10111000DB0708D4164807F0EDFC0122134B1A60D8
:10112000144813F006F8237A134A0092184A0192E1
:1011300002930F480121124A1223FF3307F04CFC9F
:101140002B1C10339B00B268944663445B681B6A97
:10115000227ADA70013500E00025092DC6D9CF23A7
:101160009B009D44F0BDC046C4FCFFFF2C2B00201B
:10117000302B002035C601002865030030650300D0
:101180001A6503003C650300808003004865030086
:101190008465030030B589B0051C1C1C0CAB1B8892
:1011A0000093231CFFF704FF2378012293436A2B4B
:1011B00035D16279A3791B0213432A8A93422ED137
:1011C000237A002B2BD106A8211C0931042213F00D
:1011D00089F807A8211C0D31042213F083F8114B64
:1011E0001B68DB0708D4104807F084FC01220D4B74
:1011F0001A600E4812F09DFF298A6278A3781B02BC
:1012000013430B4A009201910293069B0393079BA1
:10121000049305480021074A972307F03BFC09B0D7
:1012200030BDC0462C2B0020302B002035C60100DD
:10123000986503007A64030030B587B0041C0AA8DF
:1012400020C8008800950190201C07F099F91A4BDE
:10125000236044336360194B1B68DB0708D41848CC
:1012600007F048FC0122154B1A60164812F061FF86
:1012700003A8154904AA09F0CDFD114803A907F0F8
:1012800065FB03980C38114B984207D083685A1EAF
:101290008260002B02DC05A909F058FD231C2633CF
:1012A00023620C23A38400236363A363201C06F042
:1012B0006DFF201C07B030BDE88003002C2B002000
:1012C000302B002035C601000066030030320020BC
:1012D00085DF704784DF704771DF704730B583B0BA
:1012E000041C06A820C8008800950190201C07F067
:1012F00047F90F4B1A1C183222605C3363600023DD
:10130000A362231C2C3323620623A384002206E05D
:101310004A235343E3183033002199700132002AE5
:10132000F6DD201C06F032FF201C03B030BDC046A5
:101330001063030048DF704747DF70473BDF7047AB
:1013400032DF704761DF704760DF704787DF7047CB
:1013500086DF704708B5024B1B68984708BDC0463A
:10136000DC2D002001225242014B1A837047C046F7
:10137000442E00208288014B1A837047442E00209F
:1013800038B5041C08F024FE002513E00B4B1A6846
:10139000002A0ED02B1C10339B00D318586800284D
:1013A00007D0036ADB78002B03D003681B6A211C7B
:1013B00098470135092DE9DD38BDC046182B0020BE
:1013C00008B50348034B0360FEF796FF08BDC0460F
:1013D0000C300020C883030030B583B08389002B14
:1013E00027D0C289144B9A4223D1027C134B9B7D98
:1013F0009A421ED1041CC58A114B1B68DB0708D416
:10140000104807F077FB01220D4B1A600E4812F0CE
:1014100090FE0E4B00930E4B01930A4801210D4A9A
:101420008A235B0007F0D8FAA0880B4B5B68291C65
:10143000984703B030BDC04624150000442E00205C
:101440002C2B0020302B002035C60100387E0300F5
:101450004C66030037660300DC2D0020F0B587B032
:10146000104B984200D1FEE7161C0D1C041E11D033
:1014700004F0F4F8071CFBF77FF90B4B00930B4BC0
:10148000019302940397049605950121084AD623F7
:1014900007F0A2FA082C02D0112C00D0FEE707B00A
:1014A000F0BDC046EFBEADDE808003006466030081
:1014B000A65E030008B5034800210022FFF7CEFF17
:1014C00008BDC046EFBEADDE00B585B0FBF754F9F0
:1014D000214B0093214B01930121214AA52307F0C1
:1014E0007BFA08201F4908314722002308F000FB3F
:1014F000002803D0AC211C4AFFF7B0FF1B4808F0BE
:10150000EDFA002803D0B021174AFFF7A7FF02A881
:101510000023029380239B00436001230370FFF7A5
:1015200013FF002803D0B9210F4AFFF797FF0120CE
:10153000FFF702FF002803D0BD210B4AFFF78EFF03
:101540000120FFF7FBFE002803D0C121064AFFF768
:1015500085FF05B000BDC046345F0300846603000C
:10156000A65E0300DC2D0020A05E030081130200B4
:1015700010B584B08389002B26D0041C134B1B6844
:10158000DB0708D4124807F0B5FA01220F4B1A60A6
:10159000104812F0CEFD104B0093104B01930C48F5
:1015A00001210F4AFE2307F017FA03A9638A0B8073
:1015B000A38A4B80A088FBF77DF8002804D0832104
:1015C0004900084AFFF74AFF04B010BD2C2B002049
:1015D000302B002035C60100387E03009C660300D6
:1015E000376603002C66030008B5808800210022BE
:1015F0000023FBF761F8002803D0D521014AFFF74B
:101600002DFF08BD2C66030008B5074B1B68DB07E0
:1016100008D4064806F042F80122034B1A60044839
:1016200012F087FD014808BD083000200C30002072
:10163000C113020030B599B005F0A4FFFBF79CF888
:10164000041C0CA84B490DAA09F0E4FB201C0CA9B2
:1016500007F07CF90C980C3814A909F0B3FAFBF7E1
:101660008BF8041C0EA844490FAA09F0D3FB201CD8
:101670000EA907F06BF90E980C3815A909F0A2FA1B
:10168000FBF77AF8041C10A83C4911AA09F0C2FB28
:10169000201C10A907F05AF910980C3816A909F067
:1016A00091FAFBF769F8041C12A8354913AA09F04E
:1016B000B1FB201C12A907F049F912980C3817A9A0
:1016C00009F080FAFFF700FFFFF79EFFFBF73CFCF5
:1016D000458EA02009F0BAF9041C291C00F094FFE3
:1016E000284B1C60102009F0B1F904F0DFFA02A8C1
:1016F00012F01EFE099A069BD3180193FDF754F9C8
:10170000FEF710FE204947230B8020480830FFF7E2
:1017100019FE002804D11D480830FDF7ABF9F1E7A8
:10172000052820D1174B1868002810D07C23C15AF7
:1017300000290CD003F08CF9124D2B687C24185B27
:1017400084229958FDF776F92B6800221A53FFF787
:10175000F1FD002803D094210D4AFFF77FFE1620EB
:10176000FFF7EEFDCCE70028CAD09A21084AFFF720
:1017700075FEC5E7345F0300AC660300B466030082
:10178000A4590300182B00201A280020DC2D00206B
:10179000A05E030030B583B0041CE04B1B88984268
:1017A00000D1B8E1002B1ED0FFF7D0FD002803D0F8
:1017B0003221DB4AFFF752FEDA4B1B68DB0708D405
:1017C000D94807F097F90122D64B1A60D74812F092
:1017D000B0FCD74B0093D74B0193D3480121D64A95
:1017E000332307F0F9F88023DB009C4200D0B4E0FB
:1017F000D24B1B68002B50D14C2009F027F9051C57
:10180000012303704370002100228170C8206860AA
:10181000783828816881A98196218900E981B939C0
:10182000FF39298269821038A882FA204001E882B3
:10183000C820C000288308206883A9832039E98351
:101840007B39298405316984BD48A884BD48E88472
:10185000FA20800028856885A98524316B540131E0
:101860000020685401316A546B8633330121E954F6
:1018700003210133E95401310133E9540133EA54BE
:1018800001330121E9540133EA54281C3A30AE49AE
:10189000102212F027FDA94B1D60A84B1A68518A2F
:1018A000AA4B50331981002A50D14C2009F0CEF8B0
:1018B000051C012303704370002100228170C820A1
:1018C0006860783828816881A98196218900E9813A
:1018D000B939FF39298269821038A882FA2040017B
:1018E000E882C820C000288308206883A9832039A3
:1018F000E9837B392984053169849148A88491481A
:10190000E884FA20800028856885A98524316B54F5
:1019100001310020685401316A546B863333012150
:10192000E95403210133E95401310133E95401330E
:10193000EA5401330121E9540133EA54281C3A30B6
:101940008149102212F0CEFC7C4B1D607B4B1B6842
:101950009A8A7E4B50335A81B8E0F0231B019C4297
:1019600000D0B3E0754B1B68002B50D14C2009F020
:101970006DF8051C01230370437000210022817063
:10198000C8206860783828816881A98196218900FB
:10199000E981B939FF39298269821038A882FA2091
:1019A0004001E882C820C000288308206883A983FA
:1019B0002039E9837B392984053169846048A8840A
:1019C0006048E884FA20800028856885A98524314C
:1019D0006B5401310020685401316A546B863333F3
:1019E0000121E95403210133E95401310133E95460
:1019F0000133EA5401330121E9540133EA54281C2C
:101A00003A305149102212F06DFC4C4B1D604B4B8B
:101A10001A68118B4D4B50331981002A50D14C203C
:101A200009F014F8051C0123037043700021002203
:101A30008170C8206860783828816881A9819621E2
:101A40008900E981B939FF39298269821038A88271
:101A5000FA204001E882C820C0002883082068835B
:101A6000A9832039E9837B39298405316984344885
:101A7000A8843448E884FA20800028856885A985F0
:101A800024316B5401310020685401316A546B8653
:101A900033330121E95403210133E9540131013386
:101AA000E9540133EA5401330121E9540133EA5482
:101AB000281C3A302449102212F014FC1F4B1D60E0
:101AC0001E4B1B685A8B214B50335A81002C20D05F
:101AD0001E485030FFF73CFC002803D04621104A36
:101AE000FFF7BCFC0F4B1B68DB0708D40E4807F060
:101AF00001F801220B4B1A600C4812F01AFB0C4B38
:101B00000093134B0193084801210B4A472306F029
:101B100063FF024B1C8003B030BDC046402E002046
:101B2000BC6603002C2B0020302B002035C60100A2
:101B3000387E0300DC660300C7660300D82D002052
:101B4000B80B0000102700000C660300DC2D0020FD
:101B5000F066030010B582B0011C0388192B34D045
:101B60001B2B02D0102B4CD129E0837B572B18D98B
:101B7000031C027D0F339B791B021343254A9342BA
:101B800011D1837DF02B10D1031CC27D0F335B7A02
:101B90001B021343204A1268128D934207D000247F
:101BA00006E0002404E0002402E0002400E0012418
:101BB000002C28D0184B186801F004FB26E0802088
:101BC000C000FFF7E7FD002420E08379022B1CD141
:101BD000124B1B68DB0708D4114806F08BFF01226B
:101BE0000E4B1A600F4812F0A4FA0F4B00930F4BE4
:101BF00001930B4801210E4A8E2306F0EDFE0024CE
:101C000004E0002402E0012400E00024201C02B0D3
:101C100010BDC0464D020000D02F00202C2B00200C
:101C2000302B002035C601009064030004670300D8
:101C3000C766030010B5614A5021535C01208343FD
:101C4000013083435354002353655D4B1B68002BC5
:101C500050D14A3008F0FAFE041C0123037043708F
:101C6000002100228170C820606078382081608166
:101C7000A18196218900E181B939FF3921826182F0
:101C80001038A082FA204001E082C820C0002083E2
:101C900008206083A1832039E1837B3921840531C9
:101CA00061844848A0844848E084FA208000208568
:101CB0006085A185243163540131002060540131D5
:101CC0006254638633330121E15403210133E1542B
:101CD00001310133E1540133E25401330121E15474
:101CE0000133E254201C3A303849102212F0FAFA3B
:101CF000334B1C60324B1A68518A304B5033198178
:101D0000002A50D14C2008F0A1FE041C01230370CE
:101D10004370002100228170C820606078382081E3
:101D20006081A18196218900E181B939FF39218241
:101D300061821038A082FA204001E082C820C000F1
:101D4000208308206083A1832039E1837B392184AB
:101D5000053161841B48A0841B48E084FA20800080
:101D600020856085A18524316354013100206054B1
:101D700001316254638633330121E154032101337D
:101D8000E15401310133E1540133E25401330121C3
:101D9000E1540133E254201C3A300C49102212F075
:101DA000A1FA074B1C60064B1A68044B5033928A09
:101DB0005A8100229A81064B1A8010BDDC2D00202A
:101DC000D82D0020B80B0000102700000C6603007F
